:020000040000fa
:080000000002040000000000f2
:020000040000fa
:10040000cfd92000007f22000001880000000000fa
:100410000a00070011000700000020000000e000b3
:10042000020032000000020000000000927a020088
:10043000000000000040da000000fe004440a90077
:10044000e02c23000000e000030032000000200048
:10045000a00188004440a8000000060080902b0006
:10046000010020001500370062004000e0804800d5
:10047000910188009001ba0062004000e0804800cd
:10048000910188009002ba0062004000e0804800bc
:100490000002eb006028e10004003a000059eb0084
:1004a0008301e900fdff3e00040037006128e10000
:1004b000010032000082eb00050007009101880076
:1004c0001001ba000200e000e7ff3a00000005005a
:1004d000910188008002780062004000e0804800be
:1004e0003559ba008301e900080032002559ba00e5
:1004f0008301e900050032000400e000f4ff32004f
:1005000015d9ba008301e900f1ff3a0000000600a6
:100510006022b800060220000000d0008180d200d6
:100520000482d2008582d2000000a00002025200a4
:1005300083825a00030031000202420083824a0093
:100540000000a1000603e900f3ff3a0000000600e6
:020000040000fa
:020000040002f8
:04aff800be7b00001c
:020000040000fa
:020000040002f8
:04affc00fb3700001f
:020000040000fa
:1000080096bb000096bb000096bb000096bb0000a4
:1000180096bb000096bb000096bb000096bb000094
:1000280096bb000096bb000096bb000096bb000084
:1000380096bb000096bb000096bb000096bb000074
:1000480096bb000096bb000096bb000096bb000064
:1000580096bb000096bb000096bb000096bb000054
:1000680096bb000096bb000096bb000096bb000044
:1000780096bb000096bb000096bb000096bb000034
:1000880096bb000096bb000096bb000096bb000024
:10009800a082000096bb000096bb000096bb000043
:1000a80096bb000096bb000096bb000096bb000004
:1000b80096bb000096bb000096bb000096bb0000f4
:1000c80096bb000096bb000096bb000096bb0000e4
:1000d80096bb000096bb000096bb000096bb0000d4
:1000e80096bb000096bb000096bb000096bb0000c4
:1000f80096bb000096bb000096bb000096bb0000b4
:1001080096bb000096bb000096bb000096bb0000a3
:1001180096bb000096bb000096bb000096bb000093
:1001280096bb000096bb000096bb000096bb000083
:1001380096bb000096bb000096bb000096bb000073
:1001480096bb000096bb000096bb000096bb000063
:1001580096bb000096bb000096bb000096bb000053
:1001680096bb000096bb000096bb000096bb000043
:1001780096bb000096bb000096bb000096bb000033
:1001880096bb000096bb000096bb000096bb000023
:1001980096bb000096bb000096bb000096bb000013
:1001a80096bb000096bb000096bb000096bb000003
:1001b80096bb000096bb000096bb000096bb0000f3
:1001c80096bb000096bb000096bb000096bb0000e3
:1001d80096bb000096bb000096bb000096bb0000d3
:1001e80096bb000096bb000096bb000096bb0000c3
:0801f80096bb000096bb00005d
:020000040000fa
:1002080096bb000096bb000096bb000096bb0000a2
:1002180096bb000096bb000096bb000096bb000092
:1002280096bb000096bb000096bb000096bb000082
:1002380096bb000096bb000096bb000096bb000072
:1002480096bb000096bb000096bb000096bb000062
:1002580096bb000096bb000096bb000096bb000052
:1002680096bb000096bb000096bb000096bb000042
:1002780096bb000096bb000096bb000096bb000032
:1002880096bb000096bb000096bb000096bb000022
:10029800a082000096bb000096bb000096bb000041
:1002a80096bb000096bb000096bb000096bb000002
:1002b80096bb000096bb000096bb000096bb0000f2
:1002c80096bb000096bb000096bb000096bb0000e2
:1002d80096bb000096bb000096bb000096bb0000d2
:1002e80096bb000096bb000096bb000096bb0000c2
:1002f80096bb000096bb000096bb000096bb0000b2
:1003080096bb000096bb000096bb000096bb0000a1
:1003180096bb000096bb000096bb000096bb000091
:1003280096bb000096bb000096bb000096bb000081
:1003380096bb000096bb000096bb000096bb000071
:1003480096bb000096bb000096bb000096bb000061
:1003580096bb000096bb000096bb000096bb000051
:1003680096bb000096bb000096bb000096bb000041
:1003780096bb000096bb000096bb000096bb000031
:1003880096bb000096bb000096bb000096bb000021
:1003980096bb000096bb000096bb000096bb000011
:1003a80096bb000096bb000096bb000096bb000001
:1003b80096bb000096bb000096bb000096bb0000f1
:1003c80096bb000096bb000096bb000096bb0000e1
:1003d80096bb000096bb000096bb000096bb0000d1
:1003e80096bb000096bb000096bb000096bb0000c1
:0803f80096bb000096bb00005b
:020000040000fa
:100550007478000074000000687400006d010000f1
:10056000636700006901000067690000660200001f
:100570006a70000067030000706e000067040000ee
:10058000786d00006c0500006373000073060000c6
:100590007761000076070000636f00006e74000052
:1005a000656e0000742d00006c6500006e67000031
:1005b000746800003a000000636f00006e74000071
:1005c000656e0000742d00007479000070650000f5
:1005d0003a0000006d7500006c7400006970000046
:1005e00061720000742f0000666f0000726d0000e1
:1005f0002d6400006174000061000000636f000062
:100600006e740000656e0000742d000064690000c7
:10061000737000006f73000069740000696f000060
:100620006e3a0000006e0000616d0000653d000044
:1006300000660000696c0000656e0000616d0000de
:10064000653d0000006300006f6e000074650000ef
:100650006e7400002d740000726100006e73000063
:1006600066650000722d0000656e0000636f00007b
:10067000646900006e6700003a00000071750000b8
:100680006f740000656400002d7000007269000046
:100690006e740000616200006c6500000062000082
:1006a00061730000653600003400000074650000ce
:1006b000787400002f7000006c610000696e00000b
:1006c0000d0a00000074000065780000742f00001f
:1006d000687400006d6c00000d0a000000690000e5
:1006e0006d610000676500002f670000696600000b
:1006f0000d0a0000006900006d61000067650000e0
:100700002f6a000070650000670d00000a000000fd
:10071000696d000061670000652f0000706e0000c9
:10072000670d00000a000000746500007874000086
:100730002f7800006d6c00000d0a000000740000ae
:1007400065780000742f000063730000730d0000d3
:100750000a00000061750000646900006f2f00004e
:10076000782d000077610000766500000d0a00001a
:1007700000610000707000006c690000636100009f
:10078000746900006f6e00002f6f0000637400003a
:10079000657400002d730000747200006561000034
:1007a0006d0d00000a000000485400005450000085
:1007b0002f3100002e3100002032000030300000c8
:1007c000204f00004b0d00000a4300006f6e000038
:1007d0006e65000063740000696f00006e3a0000ef
:1007e000204300006c6f0000736500000d0a0000dc
:1007f0000048000054540000502f0000312e00002b
:100800003120000034300000302000004261000040
:1008100064200000526500007175000065730000df
:10082000740d00000a4300006f6e00006e6500004a
:1008300063740000696f00006e3a000020430000fe
:100840006c6f0000736500000d0a00000d0a0000c7
:1008500034300000302000004261000064200000bd
:10086000526500007175000065730000743a000065
:10087000204300006f7500006c640000206e0000d3
:100880006f74000020700000726f0000636500004c
:1008900073730000207900006f7500007220000063
:1008a000726500007175000065730000740d000032
:1008b0000a00000048540000545000002f3100008e
:1008c0002e3100002034000030340000204e0000a3
:1008d0006f740000204600006f7500006e64000019
:1008e0000d0a0000436f00006e6e0000656300009b
:1008f000746900006f6e00003a200000436c000035
:100900006f730000650d00000a0d00000a3400003e
:1009100030340000204e00006f74000020460000bc
:100920006f7500006e6400003a200000436f000005
:10093000756c0000642000006e6f000074200000e1
:10094000666900006e64000020720000657100009e
:100950007565000073740000656400002066000087
:10096000696c0000650d00000a000000485400009a
:10097000545000002f3100002e31000020350000bf
:1009800030310000204e00006f740000204900004c
:100990006d7000006c6500006d6500006e740000f5
:1009a000656400000d0a0000436f00006e6e0000d9
:1009b00065630000746900006f6e00003a2000005b
:1009c000436c00006f730000650d00000a0d00000d
:1009d0000a35000030310000204e00006f74000026
:1009e000204900006d7000006c6500006d6500001e
:1009f0006e740000656400003a2000005468000036
:100a000065200000726500007175000065730000cc
:100a100074650000642000006d65000074680000cb
:100a20006f64000020690000732000006e6f0000fa
:100a30007420000073750000707000006f72000079
:100a400074650000640d00000a00000048540000b6
:100a5000545000002f3100002e31000020350000de
:100a600030330000205300006572000076690000fa
:100a700063650000205500006e6100007661000093
:100a8000696c0000616200006c6500000d0a0000e6
:100a9000436f00006e6e0000656300007469000023
:100aa0006f6e00003a200000436c00006f7300007e
:100ab000650d00000a0d00000a350000303300000b
:100ac0002053000065720000766900006365000035
:100ad000205500006e61000076610000696c000026
:100ae000616200006c6500003a2000005365000060
:100af00072760000657200002063000075720000cd
:100b0000726500006e7400006c79000020740000b3
:100b10006f6f0000206200007573000079200000f4
:100b20002d200000706c00006561000073650000fe
:100b300020740000727900002061000067610000ed
:100b4000696e00000d0a0000006900006e6400007c
:100b5000657800005f680000746d00000000000010
:100b6000001b0000d23c0000214400004f43000065
:100b7000545900005045000020680000746d0000ca
:100b80006c20000050550000424c0000494300001a
:100b9000202200002d2f00002f57000033430000bb
:100ba0002f2f00004454000044200000584800004b
:100bb000544d00004c200000312e00003020000079
:100bc00054720000616e00007369000074690000d7
:100bd0006f6e0000616c00002f2f0000454e00007a
:100be000222000002268000074740000703a0000a7
:100bf0002f2f000077770000772e0000773300005a
:100c00002e6f0000726700002f540000522f00006a
:100c100078680000746d00006c3100002f44000003
:100c2000544400002f780000687400006d6c0000d0
:100c3000312d000074720000616e000073690000c5
:100c4000746900006f6e0000616c00002e6400008b
:100c500074640000223e00000d0a00003c680000a1
:100c6000746d00006c200000786d00006c6e000058
:100c7000733d00002268000074740000703a0000a8
:100c80002f2f000077770000772e000077330000c9
:100c90002e6f0000726700002f310000393900000c
:100ca000392f000078680000746d00006c2200008d
:100cb0003e0d00000a3c0000686500006164000011
:100cc0003e0d00000a3c00006d65000074610000ec
:100cd0002068000074740000702d00006571000031
:100ce00075690000763d0000224300006f6e000031
:100cf000746500006e7400002d54000079700000cf
:100d000065220000206300006f6e00007465000023
:100d10006e7400003d2200007465000078740000cd
:100d20002f680000746d00006c3b00002063000021
:100d30006861000072730000657400003d7500007a
:100d4000746600002d380000222000002f3e0000b5
:100d50000d0a00003c740000697400006c6500001e
:100d60003e4500006d62000065640000646500009f
:100d7000642d0000436f00006465000020540000f3
:100d8000657300007420000050610000676500007a
:100d90003c2f000074690000746c0000653e000088
:100da0000d0a00000d0a00000d0a00003c7300004f
:100db000747900006c6500002074000079700000f8
:100dc000653d00002274000065780000742f00006b
:100dd00063730000732200003e0d00000a3c000017
:100de000212d00002d0d00000a2e0000737400005c
:100df000796c000065320000207b00000d0a0000c5
:100e0000096600006f6e0000742d0000666100002e
:100e10006d6900006c7900003a200000417200000a
:100e2000696100006c2c000020480000656c000027
:100e30007665000074690000636100002c200000ea
:100e4000736100006e7300002d7300006572000076
:100e5000696600003b0d00000a090000666f000093
:100e60006e7400002d730000697a0000653a00007e
:100e7000206d000065640000697500006d3b000096
:100e80000d0a0000096300006f6c00006f72000023
:100e90003a20000023460000464600004646000077
:100ea000463b00000d0a00007d0d00000a2e0000e8
:100eb00073740000796c000065330000207b000033
:100ec000666f00006e7400002d660000616d00000a
:100ed000696c0000793a000020410000726900004e
:100ee000616c00002c200000486500006c7600005a
:100ef0006574000069630000612c0000207300002d
:100f0000616e0000732d00007365000072690000bf
:100f1000663b0000206600006f6e0000742d00002c
:100f20007765000069670000687400003a200000df
:100f3000626f00006c6400003b200000666f0000e0
:100f40006e7400002d730000697a0000653a00009d
:100f5000206c000061720000676500003b2000000b
:100f60007d0d00000a2e000073740000796c0000f3
:100f700065350000207b0000666f00006e74000085
:100f80002d660000616d0000696c0000793a000078
:100f90002041000072690000616c00002c200000fc
:100fa000486500006c76000065740000696300000d
:100fb000612c000020730000616e0000732d0000a2
:100fc0007365000072690000663b00002066000047
:100fd0006f6e0000742d0000736900007a650000d8
:100fe0003a200000736d0000616c00006c3b000053
:100ff000207d00000d0a00002d2d00003e0d000098
:101000000a3c00002f730000747900006c6500003a
:101010003e0d00000a3c00002f68000065610000e2
:10102000643e00000d0a00000d0a00003c62000052
:101030006f640000793e00000d0a00000d0a0000f8
:101040003c64000069760000206100006c690000cb
:10105000676e00003d220000636500006e740000b2
:1010600065720000223e00000d0a000020200000f2
:101070003c740000616200006c6500002077000095
:1010800069640000746800003d22000036300000f2
:1010900030220000206200006f72000064650000d2
:1010a000723d000022300000222000006365000035
:1010b0006c6c00007370000061630000696e0000da
:1010c000673d000022300000222000006365000020
:1010d0006c6c00007061000064640000696e0000c8
:1010e000673d000022300000223e00000d0a000093
:1010f00020200000202000003c740000723e000010
:101100000d0a000020200000202000002020000008
:101110003c740000643e00003c64000069760000fe
:10112000206100006c690000676e00003d22000035
:10113000636500006e74000065720000223e0000ce
:101140003c6900006d6700002073000072630000be
:101150003d220000696d00006167000065730000ba
:101160002f650000635f00006c6f0000676f000078
:101170002e6a0000706700002220000077690000de
:1011800064740000683d000022320000303000002e
:101190002220000068650000696700006874000094
:1011a0003d22000037300000222000002f3e0000ca
:1011b0003c2f000064690000763e00003c2f0000d8
:1011c000746400003e0d00000a2000002020000092
:1011d000203c00002f740000723e00000d0a000049
:1011e00020200000202000003c740000723e00001f
:1011f0000d0a000020200000202000002020000018
:101200003c7400006420000068650000696700000d
:10121000687400003d22000032300000223e0000d1
:101220003c2f0000746400003e0d00000a20000006
:1012300020200000203c00002f740000723e0000bf
:101240000d0a000020200000202000003c74000057
:10125000723e00000d0a0000202000002020000047
:10126000202000003c740000643e00003c6400004c
:1012700069760000206100006c690000676e000064
:101280003d220000636500006e740000657200007e
:1012900022200000636c000061730000733d0000b9
:1012a00022730000747900006c6500003322000096
:1012b0003e4500006d62000065640000646500004a
:1012c000642d0000436f0000646500002e63000081
:1012d0006f6d000020540000435000002f490000b3
:1012e0005020000044720000697600006572000022
:1012f00020530000616d0000706c0000652000004c
:101300005765000062200000506100006765000022
:101310003c2f000064690000763e00003c2f000076
:10132000746400003e0d00000a2000002020000030
:10133000203c00002f740000723e00000d0a0000e7
:1013400020200000202000003c740000723e0000bd
:101350000d0a0000202000002020000020200000b6
:101360003c740000642000006865000069670000ac
:10137000687400003d22000032300000223e000070
:101380003c2f0000746400003e0d00000a200000a5
:1013900020200000203c00002f740000723e00005e
:1013a0000d0a0000202000003c2f000074610000a6
:1013b000626c0000653e00000d0a00000d0a00008e
:1013c000202000003c740000616200006c65000099
:1013d0002077000069640000746800003d2200006e
:1013e0003630000030220000206200006f720000e2
:1013f00064650000723d00002232000022200000df
:10140000636500006c6c00007061000064640000a3
:10141000696e0000673d00002232000022200000bb
:10142000636500006c6c0000737000006163000075
:10143000696e0000673d000022300000222000009d
:10144000626f00007264000065720000636f00004c
:101450006c6f0000723d0000222300003334000056
:101460003837000034330000223e00000d0a00002f
:1014700020200000202000003c740000723e00008c
:101480000d0a000020200000202000002020000085
:101490003c7400006420000062670000636f00007d
:1014a0006c6f0000723d0000222300003334000006
:1014b0003837000034330000223e00003c64000056
:1014c00069760000206100006c690000676e000012
:1014d0003d220000636500006e740000657200002c
:1014e00022200000636c000061730000733d000067
:1014f00022730000747900006c6500003222000045
:101500003e0d00000a2000002020000020200000e6
:1015100020200000203c00006469000076200000cc
:10152000616c0000696700006e3d0000226c0000e5
:1015300065660000742200003e3c000073740000e9
:10154000726f00006e6700003e530000657400007b
:1015500075700000205000004f5000003320000044
:10156000456d0000616900006c20000052650000bc
:101570006365000069760000653c00002f73000081
:10158000747200006f6e0000673e00003c2f000088
:1015900064690000763e00000d0a00002020000073
:1015a00020200000202000003c2f00006469000083
:1015b000763e00003c2f0000746400003e0d0000e9
:1015c0000a20000020200000203c00002f740000b2
:1015d000723e00000d0a00002020000020200000c4
:1015e0003c740000723e00000d0a00002020000044
:1015f00020200000202000003c7400006420000037
:101600006865000069670000687400003d22000002
:1016100032300000223e00000d0a000020200000b1
:1016200020200000202000000d0a000020200000e3
:1016300020200000202000003c6600006f720000a7
:101640006d2000006e6100006d6500003d2200000d
:101650007365000074750000705f0000706f00001b
:1016600070330000222000006d65000074680000e7
:101670006f6400003d2200006765000074220000d6
:101680002061000063740000696f00006e3d00007f
:10169000226900006e640000657800002e6800007a
:1016a000746d00006c2200003e0d00000a20000056
:1016b0002020000020200000203c00007461000079
:1016c000626c00006520000077690000647400000f
:1016d000683d00002231000030300000252200006b
:1016e000206200006f72000064650000723d00001f
:1016f0002230000022200000636500006c6c0000b6
:101700007370000061630000696e0000673d0000b7
:101710002230000022200000636500006c6c000095
:101720007061000064640000696e0000673d0000a5
:1017300022300000223e00000d0a000020200000a0
:101740002020000020200000202000003c74000029
:10175000723e00000d0a0000202000002020000042
:101760002020000020200000202000003c74000009
:10177000642000007769000064740000683d000088
:101780002232000030300000222000006865000096
:1017900069670000687400003d22000035220000e7
:1017a0003e3c00002f740000643e00000d0a000063
:1017b0002020000020200000202000002020000029
:1017c000202000003c7400006420000077690000c5
:1017d00064740000683d00002231000030220000e7
:1017e0003e3c00002f740000643e00000d0a000023
:1017f00020200000202000002020000020200000e9
:10180000202000003c740000643e00003c2f0000db
:10181000746400003e0d00000a200000202000003b
:101820002020000020200000203c00002f74000039
:10183000723e00000d0a0000202000002020000061
:1018400020200000202000003c740000723e0000b8
:101850000d0a0000202000002020000020200000b1
:1018600020200000202000003c740000643e0000a6
:101870003c64000069760000206100006c69000093
:10188000676e00003d22000072690000676800007a
:1018900074220000206300006c610000737300007c
:1018a0003d22000073740000796c00006535000073
:1018b000223e0000504f0000503300002053000033
:1018c0006572000076650000723a00003c2f00004f
:1018d00064690000763e00003c2f00007464000044
:1018e0003e0d00000a200000202000002020000003
:1018f0002020000020200000203c00007464000034
:101900003e3c00002f740000643e00000d0a000001
:1019100020200000202000002020000020200000c7
:10192000202000003c74000064200000616c000076
:10193000696700006e3d0000226c000065660000d3
:10194000742200003e3c0000696e000070750000cb
:10195000742000006e6100006d6500003d220000f3
:10196000706f0000703300005f730000657200004c
:10197000766500007222000020740000797000007b
:10198000653d0000227400006578000074220000ac
:1019900020760000616c0000756500003d220000ab
:1019a0007e7000006f700000335f00007365000000
:1019b00072760000657200002d2200002073000086
:1019c000697a0000653d00002234000030220000ea
:1019d000206d0000617800006c6500006e670000fb
:1019e000746800003d220000333000002220000017
:1019f0002f3e00003c2f0000746400003e0d0000ec
:101a00000a200000202000002020000020200000ec
:101a1000203c00002f740000723e00000d0a000000
:101a200020200000202000002020000020200000b6
:101a30003c740000723e00000d0a000020200000ef
:101a40002020000020200000202000002020000096
:101a50003c740000643e00003c64000069760000b5
:101a6000206100006c690000676e00003d220000ec
:101a700072690000676800007422000020630000a3
:101a80006c610000737300003d220000737400005d
:101a9000796c000065350000223e0000557300009f
:101aa000657200006e6100006d6500003a3c000048
:101ab0002f640000697600003e3c00002f74000097
:101ac000643e00000d0a00002020000020200000dd
:101ad0002020000020200000202000003c74000096
:101ae000643e00003c2f0000746400003e0d0000c6
:101af0000a200000202000002020000020200000fc
:101b000020200000203c00007464000020610000e0
:101b10006c690000676e00003d2200006c650000eb
:101b200066740000223e00003c6900006e700000f8
:101b300075740000206e0000616d0000653d0000be
:101b4000227000006f700000335f000075730000aa
:101b5000657200006e6100006d65000022200000cb
:101b600074790000706500003d220000746500007b
:101b70007874000022200000766100006c7500007f
:101b8000653d0000227e0000706f00007033000091
:101b90005f75000073650000726e0000616d0000eb
:101ba000652d000022200000736900007a650000a6
:101bb0003d22000034300000222000006d61000052
:101bc000786c0000656e000067740000683d0000de
:101bd0002233000030220000202f00003e3c000095
:101be0002f740000643e00000d0a00002020000059
:101bf0002020000020200000202000003c2f0000ba
:101c0000747200003e0d00000a2000002020000039
:101c10002020000020200000203c00007472000002
:101c20003e0d00000a2000002020000020200000bf
:101c30002020000020200000203c000074640000f0
:101c40003e3c00006469000076200000616c0000ea
:101c5000696700006e3d00002272000069670000a5
:101c60006874000022200000636c000061730000b3
:101c7000733d000022730000747900006c65000061
:101c8000352200003e5000006173000073770000b1
:101c90006f720000643a00003c2f0000646900008d
:101ca000763e00003c2f0000746400003e0d0000f2
:101cb0000a2000002020000020200000202000003a
:101cc00020200000203c0000746400003e3c000026
:101cd0002f740000643e00000d0a00002020000068
:101ce00020200000202000002020000020200000f4
:101cf0003c74000064200000616c00006967000013
:101d00006e3d0000226c0000656600007422000039
:101d10003e3c0000696e00007075000074200000f9
:101d20006e6100006d6500003d220000706f0000d4
:101d3000703300005f700000617300007377000073
:101d40006f720000642200002074000079700000af
:101d5000653d000022700000617300007377000091
:101d60006f7200006422000020760000616c0000a9
:101d7000756500003d2200007e7000006f7000005d
:101d8000335f00007061000073730000776f000024
:101d9000726400002d22000020730000697a0000a8
:101da000653d00002234000030220000206d00005c
:101db000617800006c6500006e67000074680000c8
:101dc0003d22000033300000222000002f3e0000a2
:101dd0003c2f0000746400003e0d00000a2000004b
:101de000202000002020000020200000203c0000d7
:101df0002f740000723e00000d0a00002020000039
:101e00002020000020200000202000003c74000062
:101e1000723e00000d0a000020200000202000007b
:101e20002020000020200000202000003c74000042
:101e3000643e00003c640000697600002061000000
:101e40006c690000676e00003d22000072690000ae
:101e50006768000074220000206300006c610000cd
:101e6000737300003d22000073740000796c000061
:101e700065350000223e00004368000065630000f5
:101e80006b200000666f0000722000006d61000092
:101e9000696c0000206e00006f7700003a3c000083
:101ea0002f640000697600003e3c00002f740000a3
:101eb000643e00000d0a00002020000020200000e9
:101ec0002020000020200000202000003c740000a2
:101ed000643e00003c2f0000746400003e0d0000d2
:101ee0000a20000020200000202000002020000008
:101ef00020200000203c00007464000020610000ed
:101f00006c690000676e00003d2200006c650000f7
:101f100066740000223e00003c6900006e70000004
:101f200075740000206e0000616d0000653d0000ca
:101f3000227000006f700000335f000063680000d3
:101f4000656300006b5f00006d610000696c00005c
:101f50002220000074790000706500003d2200001e
:101f600063680000656300006b6200006f7800002a
:101f700022200000766100006c750000653d0000c5
:101f800022310000222f00003e3c00002f74000090
:101f9000643e00000d0a0000202000002020000008
:101fa00020200000202000003c2f00007472000060
:101fb0003e0d00000a20000020200000202000002c
:101fc00020200000200d00000a200000202000003a
:101fd0002020000020200000203c0000747200003f
:101fe0003e0d00000a2000002020000020200000fc
:101ff0002020000020200000203c0000746400002d
:102000003e3c00002f740000643e00000d0a0000fa
:1020100020200000202000002020000020200000c0
:10202000202000003c740000643e00003c2f0000b3
:10203000746400003e0d00000a2000002020000013
:10204000202000002020000020200000203c000074
:1020500074640000206100006c690000676e00007d
:102060003d2200006c65000066740000223e000006
:102070003c6c000061620000656c00003e0d0000d9
:102080000a20000020200000202000002020000066
:102090002020000020200000203c0000696e00008d
:1020a00070750000742000007479000070650000f5
:1020b0003d22000073750000626d0000697400002d
:1020c000222000006e6100006d6500003d220000ce
:1020d000706f0000703300005f73000075620000d5
:1020e0006d6900007422000020760000616c000021
:1020f000756500003d22000053750000626d000010
:1021000069740000222000002f3e00000d0a00002c
:1021100020200000202000002020000020200000bf
:10212000202000003c2f00006c6100006265000070
:102130006c3e00003c2f0000746400003e0d000067
:102140000a200000202000002020000020200000a5
:10215000203c00002f740000723e00000d0a0000b9
:102160002020000020200000202000003c2f000044
:1021700074610000626c0000653e00000d0a000002
:102180002020000020200000202000003c2f000024
:10219000666f0000726d00003e0d00000a20000016
:1021a0002020000020200000203c00002f740000b0
:1021b000643e00000d0a00002020000020200000e6
:1021c0003c2f0000747200003e0d00000a20000049
:1021d000203c00002f740000616200006c6500006c
:1021e0003e0d00000a200000200d00000a20000023
:1021f000203c000074610000626c0000652000005b
:102200007769000064740000683d00002236000019
:102210003030000022200000626f00007264000075
:10222000657200003d2200003022000020630000a3
:10223000656c00006c730000706100006369000051
:102240006e6700003d220000302200002063000085
:10225000656c00006c70000061640000646900003f
:102260006e6700003d220000302200003e0d00009d
:102270000a20000020200000203c000074720000b2
:102280003e0d00000a200000202000002020000059
:10229000203c0000746400002068000065690000b4
:1022a00067680000743d0000223200003022000008
:1022b0003e3c00002f740000643e00000d0a000048
:1022c00020200000202000003c2f0000747200003d
:1022d0003e0d00000a200000203c00002f7400008a
:1022e000616200006c6500003e0d00000a200000e5
:1022f000200d00000a200000203c00007461000056
:10230000626c0000652000007769000064740000c2
:10231000683d00002236000030300000222000001e
:10232000626f000072640000657200003d220000d0
:102330003222000020630000656c00006c70000019
:1023400061640000646900006e6700003d220000c7
:102350003222000020630000656c00006c730000f6
:1023600070610000636900006e6700003d2200009c
:1023700030220000206200006f72000064650000df
:10238000726300006f6c00006f7200003d2200005d
:1023900023330000343800003734000033220000bb
:1023a0003e0d00000a20000020200000203c00001c
:1023b000747200003e0d00000a2000002020000082
:1023c00020200000203c0000746400002062000017
:1023d000676300006f6c00006f7200003d22000018
:1023e000233300003438000037340000332200006b
:1023f0003e3c00006469000076200000616c000033
:10240000696700006e3d000022630000656e0000f9
:102410007465000072220000206300006c610000ff
:10242000737300003d22000073740000796c00009b
:1024300065320000223e00000d0a0000202000004e
:10244000202000002020000020200000202000008c
:102450003c64000069760000206100006c690000a7
:10246000676e00003d2200006c650000667400008d
:10247000223e00003c730000747200006f6e00008a
:10248000673e000053650000747500007020000076
:10249000534d000054500000204500006d610000c5
:1024a000696c000020530000656e0000643c000071
:1024b0002f730000747200006f6e0000673e000012
:1024c0003c2f000064690000763e00000d0a000009
:1024d0002020000020200000202000003c2f0000d1
:1024e00064690000763e00003c2f00007464000028
:1024f0003e0d00000a20000020200000203c0000cb
:102500002f740000723e00000d0a00002020000021
:10251000202000003c740000723e00000d0a000004
:102520002020000020200000202000003c7400003b
:10253000642000006865000069670000687400009e
:102540003d22000032300000223e00003c660000c8
:102550006f7200006d20000061630000746900006c
:102560006f6e00003d220000696e0000646500008f
:10257000782e0000687400006d6c000022200000be
:102580006d650000746800006f6400003d2200006b
:10259000706f00007374000022200000656e000060
:1025a0006374000079700000653d00002261000046
:1025b000707000006c6900006361000074690000c5
:1025c0006f6e00002f7800002d77000077770000f5
:1025d0002d6600006f7200006d2d00007572000006
:1025e0006c6500006e6300006f64000065640000ad
:1025f000222000006e6100006d6500003d22000099
:102600007365000074750000705f0000736d00005a
:1026100074700000223e00000d0a0000202000001f
:1026200020200000202000002020000020200000aa
:102630003c740000616200006c65000020770000bf
:1026400069640000746800003d2200003130000021
:102650003025000022200000626f0000726400003c
:10266000657200003d22000030220000206300005f
:10267000656c00006c73000070610000636900000d
:102680006e6700003d220000302200002063000041
:10269000656c00006c7000006164000064690000fb
:1026a0006e6700003d220000302200003e0d000059
:1026b0000a20000020200000202000002020000030
:1026c0002020000020200000203c00007472000048
:1026d0003e0d00000a200000202000002020000005
:1026e00020200000202000002020000020200000ea
:1026f000203c000074640000207700006964000042
:10270000746800003d2200003230000030220000da
:10271000206800006569000067680000743d0000e3
:1027200022350000223e00003c2f000074640000af
:102730003e0d00000a2000002020000020200000a4
:102740002020000020200000202000002020000089
:10275000203c0000746400002077000069640000e1
:10276000746800003d22000031300000223e00006d
:102770003c2f0000746400003e0d00000a200000a1
:102780002020000020200000202000002020000049
:102790002020000020200000203c00007464000085
:1027a0003e3c00002f740000643e00000d0a000053
:1027b0002020000020200000202000002020000019
:1027c00020200000202000003c2f00007472000038
:1027d0003e0d00000a200000202000002020000004
:1027e000202000002020000020200000203c0000cd
:1027f000747200003e0d00000a200000202000003e
:1028000020200000202000002020000020200000c8
:1028100020200000203c0000746400003e3c0000ca
:102820006469000076200000616c000069670000a8
:102830006e3d0000227200006967000068740000ad
:1028400022200000636c000061730000733d0000f3
:1028500022730000747900006c65000035220000ce
:102860003e5300004d54000050200000536500000e
:1028700072760000657200003a3c00002f64000090
:10288000697600003e3c00002f740000643e0000aa
:102890000d0a000020200000202000002020000061
:1028a0002020000020200000202000002020000028
:1028b0003c740000643e00003c2f00007464000083
:1028c0003e0d00000a200000202000002020000013
:1028d00020200000202000002020000020200000f8
:1028e000203c000074640000206100006c6900005e
:1028f000676e00003d2200006c65000066740000f9
:10290000223e00003c6900006e70000075740000fb
:10291000206e0000616d0000653d00002273000024
:102920006d740000705f0000736500007276000037
:1029300065720000222000007479000070650000bc
:102940003d22000074650000787400002220000021
:10295000766100006c750000653d0000227e00007d
:10296000736d0000747000005f73000065720000fa
:1029700076650000722d00002220000073690000bf
:102980007a6500003d220000343000002220000063
:102990006d610000786c0000656e000067740000d7
:1029a000683d00002233000030220000202f00008c
:1029b0003e3c00002f740000643e00000d0a000041
:1029c0002020000020200000202000002020000007
:1029d00020200000202000003c2f00007472000026
:1029e0003e0d00000a2000002020000020200000f2
:1029f000202000002020000020200000203c0000bb
:102a0000747200003e0d00000a200000202000002b
:102a100020200000202000002020000020200000b6
:102a200020200000203c0000746400003e3c0000b8
:102a30006469000076200000616c00006967000096
:102a40006e3d00002272000069670000687400009b
:102a500022200000636c000061730000733d0000e1
:102a600022730000747900006c65000035220000bc
:102a70003e55000073650000726e0000616d00003d
:102a8000653a00003c2f000064690000763e0000bb
:102a90003c2f0000746400003e0d00000a2000007e
:102aa0002020000020200000202000002020000026
:102ab0002020000020200000203c00007464000062
:102ac0003e3c00002f740000643e00000d0a000030
:102ad00020200000202000002020000020200000f6
:102ae0002020000020200000202000003c74000076
:102af00064200000616c0000696700006e3d00000a
:102b0000226c000065660000742200003e3c00005c
:102b1000696e000070750000742000006e61000096
:102b20006d6500003d220000736d000074700000b0
:102b30005f75000073650000726e0000616d00003b
:102b4000652200002074000079700000653d0000df
:102b500022740000657800007422000020760000d6
:102b6000616c0000756500003d2200007e7300006e
:102b70006d740000705f00007573000065720000e6
:102b80006e6100006d6500002d22000020730000c2
:102b9000697a0000653d0000223400003022000008
:102ba000206d0000617800006c6500006e67000019
:102bb000746800003d220000333000002220000035
:102bc0002f3e00003c2f0000746400003e0d00000a
:102bd0000a2000002020000020200000202000000b
:102be0002020000020200000203c00002f74000066
:102bf000723e00000d0a000020200000202000008e
:102c000020200000202000002020000020200000c4
:102c10003c740000723e00000d0a000020200000fd
:102c200020200000202000002020000020200000a4
:102c300020200000202000003c740000643e0000c2
:102c40003c64000069760000206100006c690000af
:102c5000676e00003d220000726900006768000096
:102c600074220000206300006c6100007373000098
:102c70003d22000073740000796c0000653500008f
:102c8000223e00005061000073730000776f000067
:102c9000726400003a3c00002f6400006976000076
:102ca0003e3c00002f740000643e00000d0a00004e
:102cb0002020000020200000202000002020000014
:102cc0002020000020200000202000003c74000094
:102cd000643e00003c2f0000746400003e0d0000c4
:102ce0000a200000202000002020000020200000fa
:102cf000202000002020000020200000203c0000b8
:102d000074640000206100006c690000676e0000c0
:102d10003d2200006c65000066740000223e000049
:102d20003c6900006e70000075740000206e0000a9
:102d3000616d0000653d0000227300006d740000ad
:102d4000705f00007061000073730000776f000017
:102d50007264000022200000747900007065000099
:102d60003d2200007061000073730000776f000067
:102d70007264000022200000766100006c75000083
:102d8000653d0000227e0000736d0000747000003d
:102d90005f70000061730000737700006f720000c5
:102da000642d000022200000736900007a65000095
:102db0003d22000034300000222000006d61000040
:102dc000786c0000656e000067740000683d0000cc
:102dd0002233000030220000202f00003e3c000083
:102de0002f740000643e00000d0a00002020000047
:102df00020200000202000002020000020200000d3
:102e0000202000003c2f0000747200003e0d0000e6
:102e10000a200000202000002020000020200000c8
:102e20002020000020200000203c000074720000e0
:102e30003e0d00000a20000020200000202000009d
:102e40002020000020200000202000002020000082
:102e5000203c0000746400003e3c000064690000f7
:102e600076200000616c0000696700006e3d000084
:102e700022720000696700006874000022200000d0
:102e8000636c000061730000733d0000227300005a
:102e9000747900006c650000352200003e5400008b
:102ea0006f20000041640000647200006573000040
:102eb000733a00003c2f000064690000763e000079
:102ec0003c2f0000746400003e0d00000a2000004a
:102ed00020200000202000002020000020200000f2
:102ee0002020000020200000203c0000746400002e
:102ef0003e3c00002f740000643e00000d0a0000fc
:102f000020200000202000002020000020200000c1
:102f10002020000020200000202000003c74000041
:102f200064200000616c0000696700006e3d0000d5
:102f3000226c000065660000742200003e3c000028
:102f4000696e000070750000742000006e61000062
:102f50006d6500003d220000736d0000747000007c
:102f60005f7400006f220000207400007970000080
:102f7000653d0000227400006578000074220000a6
:102f800020760000616c0000756500003d220000a5
:102f90007e7300006d740000705f0000746f0000ad
:102fa0002d22000020730000697a0000653d0000ba
:102fb0002234000030220000206d00006178000003
:102fc0006c6500006e670000746800003d22000020
:102fd00033300000222000002f3e00003c2f000074
:102fe000746400003e0d00000a2000002020000054
:102ff00020200000202000002020000020200000d1
:10300000203c00002f740000723e00000d0a0000fa
:1030100020200000202000002020000020200000b0
:1030200020200000202000003c740000723e0000c0
:103030000d0a0000202000002020000020200000b9
:103040002020000020200000202000002020000080
:103050003c740000643e00003c640000697600009f
:10306000206100006c690000676e00003d220000d6
:10307000726900006768000074220000206300008d
:103080006c610000737300003d2200007374000047
:10309000796c000065350000223e00004672000099
:1030a0006f6d000020410000646400007265000044
:1030b000737300003a3c00002f6400006976000042
:1030c0003e3c00002f740000643e00000d0a00002a
:1030d00020200000202000002020000020200000f0
:1030e0002020000020200000202000003c74000070
:1030f000643e00003c2f0000746400003e0d0000a0
:103100000a200000202000002020000020200000d5
:10311000202000002020000020200000203c000093
:1031200074640000206100006c690000676e00009c
:103130003d2200006c65000066740000223e000025
:103140003c6900006e70000075740000206e000085
:10315000616d0000653d0000227300006d74000089
:10316000705f0000667200006f6d0000222000009a
:1031700074790000706500003d2200007465000055
:103180007874000022200000766100006c75000059
:10319000653d0000227e0000736d00007470000029
:1031a0005f660000726f00006d2d0000222000009d
:1031b000736900007a6500003d2200003430000091
:1031c000222000006d610000786c0000656e000038
:1031d00067740000683d00002233000030220000c8
:1031e000202f00003e3c00002f740000643e0000d1
:1031f0000d0a0000202000002020000020200000f8
:103200002020000020200000202000003c2f000093
:10321000747200003e0d00000a2000002020000013
:10322000202000002020000020200000202000009e
:10323000203c0000747200003e0d00000a200000d7
:10324000202000002020000020200000202000007e
:103250002020000020200000203c000074640000ba
:103260003e3c00006469000076200000616c0000b4
:10327000696700006e3d000022720000696700006f
:103280006874000022200000636c0000617300007d
:10329000733d000022730000747900006c6500002b
:1032a000352200003e530000756200006a65000090
:1032b000637400003a3c00002f640000697600004f
:1032c0003e3c00002f740000643e00000d0a000028
:1032d00020200000202000002020000020200000ee
:1032e0002020000020200000202000003c7400006e
:1032f000643e00003c2f0000746400003e0d00009e
:103300000a200000202000002020000020200000d3
:10331000202000002020000020200000203c000091
:1033200074640000206100006c690000676e00009a
:103330003d2200006c65000066740000223e000023
:103340003c6900006e70000075740000206e000083
:10335000616d0000653d0000227300006d74000087
:10336000705f000073750000626a00006563000012
:10337000742200002074000079700000653d000098
:10338000227400006578000074220000207600009e
:10339000616c0000756500003d2200007e73000036
:1033a0006d740000705f000073750000626a0000b9
:1033b00065630000742d0000222000007369000086
:1033c0007a6500003d220000343000002220000019
:1033d0006d610000786c0000656e0000677400008d
:1033e000683d00002233000030220000202f000042
:1033f0003e3c00002f740000643e00000d0a0000f7
:1034000020200000202000002020000020200000bc
:1034100020200000202000003c2f000074720000db
:103420003e0d00000a2000002020000020200000a7
:10343000202000002020000020200000203c000070
:10344000747200003e0d00000a20000020200000e1
:10345000202000002020000020200000202000006c
:1034600020200000203c0000746400003e3c00006e
:103470006469000076200000616c0000696700004c
:103480006e3d000022720000696700006874000051
:1034900022200000636c000061730000733d000097
:1034a00022730000747900006c6500003522000072
:1034b0003e530000656e0000642000006d61000056
:1034c000696c0000206e00006f7700003a3c00003d
:1034d0002f640000697600003e3c00002f7400005d
:1034e000643e00000d0a00002020000020200000a3
:1034f00020200000202000002020000020200000cc
:10350000202000003c740000643e00003c2f0000be
:10351000746400003e0d00000a200000202000001e
:10352000202000002020000020200000202000009b
:1035300020200000203c0000746400002061000096
:103540006c690000676e00003d2200006c650000a1
:1035500066740000223e00003c6900006e700000ae
:1035600075740000206e0000616d0000653d000074
:10357000227300006d740000705f0000736500002e
:103580006e6400005f6d0000616900006c22000045
:103590002074000079700000653d00002263000087
:1035a00068650000636b0000626f00007822000015
:1035b00020760000616c0000756500003d2200006f
:1035c000312200002f3e00003c2f000074640000f8
:1035d0003e0d00000a2000002020000020200000f6
:1035e000202000002020000020200000203c0000bf
:1035f0002f740000723e00000d0a00002020000021
:1036000020200000202000002020000020200000ba
:10361000202000003c740000723e00000d0a0000f3
:10362000202000002020000020200000202000009a
:103630002020000020200000202000003c7400001a
:10364000643e00003c2f0000746400003e0d00004a
:103650000a20000020200000202000002020000080
:10366000202000002020000020200000203c00003e
:10367000746400003e3c00002f740000643e0000b3
:103680000d0a000020200000202000002020000063
:10369000202000002020000020200000202000002a
:1036a0003c74000064200000616c00006967000049
:1036b0006e3d0000226c0000656600007422000070
:1036c0003e3c00006c610000626500006c3e000042
:1036d0000d0a000020200000202000002020000013
:1036e00020200000202000002020000020200000da
:1036f000202000003c6900006e700000757400001e
:103700002074000079700000653d00002273000005
:10371000756200006d69000074220000206e0000d8
:10372000616d0000653d0000227300006d740000b3
:10373000705f000073750000626d00006974000026
:1037400022200000766100006c750000653d0000dd
:1037500022530000756200006d69000074220000b1
:10376000202f00003e0d00000a2000002020000055
:103770002020000020200000202000002020000049
:1037800020200000203c00002f6c0000616200003f
:10379000656c00003e3c00002f740000643e000099
:1037a0000d0a000020200000202000002020000042
:1037b0002020000020200000202000003c2f0000de
:1037c000747200003e0d00000a200000202000005e
:1037d000202000002020000020200000203c0000cd
:1037e0002f740000616200006c6500003e0d000057
:1037f0000a2000002020000020200000203c0000c3
:103800002f6600006f7200006d3e00003c2f00002c
:10381000746400003e0d00000a200000202000001b
:10382000203c00002f740000723e00000d0a0000d2
:10383000202000003c2f000074610000626c00003a
:10384000653e00000d0a0000202000000d0a000067
:10385000202000003c740000616200006c650000e4
:103860002077000069640000746800003d220000b9
:103870003630000030220000206200006f7200002d
:1038800064650000723d000022300000222000002c
:10389000636500006c6c00007370000061630000e1
:1038a000696e0000673d0000223000002220000009
:1038b000636500006c6c00007061000064640000cf
:1038c000696e0000673d000022300000223e0000cb
:1038d0000d0a000020200000202000003c740000a1
:1038e000723e00000d0a0000202000002020000091
:1038f000202000003c740000642000006865000087
:1039000069670000687400003d220000323000004a
:10391000223e00003c2f0000746400003e0d0000b9
:103920000a20000020200000203c00002f7400002e
:10393000723e00000d0a0000202000003c2f000015
:1039400074610000626c0000653e00000d0a00001a
:10395000202000000d0a0000202000003c74000020
:10396000616200006c65000020770000696400005f
:10397000746800003d220000363000003022000054
:10398000206200006f72000064650000723d00005c
:103990002232000022200000636500006c6c0000f1
:1039a0007061000064640000696e0000673d000003
:1039b0002232000022200000636500006c6c0000d1
:1039c0007370000061630000696e0000673d0000d5
:1039d0002230000022200000626f000072640000ac
:1039e00065720000636f00006c6f0000723d0000a4
:1039f0002223000033340000383700003433000045
:103a0000223e00000d0a00002020000020200000bf
:103a10003c740000723e00000d0a000020200000ef
:103a200020200000202000003c74000064200000e2
:103a300062670000636f00006c6f0000723d000061
:103a400022230000333400003837000034330000f4
:103a5000223e00003c640000697600002061000006
:103a60006c690000676e00003d2200006365000085
:103a70006e7400006572000022200000636c00007c
:103a800061730000733d0000227300007479000030
:103a90006c650000322200003e0d00000a2000008c
:103aa0002020000020200000202000002020000016
:103ab000203c00006469000076200000616c00007a
:103ac000696700006e3d0000226c00006566000022
:103ad000742200003e3c000073740000726f00000e
:103ae0006e6700003e550000706c00006f610000c2
:103af00064200000466900006c6500003c2f000057
:103b000073740000726f00006e6700003e3c00009e
:103b10002f640000697600003e0d00000a200000be
:103b20002020000020200000203c00002f64000026
:103b3000697600003e3c00002f740000643e0000e7
:103b40000d0a000020200000202000003c2f000073
:103b5000747200003e0d00000a20000020200000ca
:103b6000203c0000747200003e0d00000a2000009e
:103b70002020000020200000203c00007464000091
:103b8000206800006569000067680000743d00005f
:103b900022320000302200003e3c0000666f000030
:103ba000726d00002061000063740000696f000006
:103bb0006e3d0000226900006e6400006578000020
:103bc0002e680000746d00006c220000206d000063
:103bd00065740000686f0000643d00002270000002
:103be0006f73000074220000206500006e63000007
:103bf00074790000706500003d2200006d750000c2
:103c00006c7400006970000061720000742f000085
:103c1000666f0000726d00002d640000617400008a
:103c200061220000206e0000616d0000653d000013
:103c300022750000706c00006f61000064220000bb
:103c40003e0d00000a20000020200000202000007f
:103c50002020000020200000203c000074610000b3
:103c6000626c000065200000776900006474000049
:103c7000683d0000223100003030000025220000a5
:103c8000206200006f72000064650000723d000059
:103c90002230000022200000636500006c6c0000f0
:103ca0007370000061630000696e0000673d0000f2
:103cb0002230000022200000636500006c6c0000d0
:103cc0007061000064640000696e0000673d0000e0
:103cd00022300000223e00000d0a000020200000db
:103ce00020200000202000002020000020200000d4
:103cf000202000003c740000723e00000d0a00000d
:103d000020200000202000002020000020200000b3
:103d10002020000020200000202000003c74000033
:103d2000642000007769000064740000683d0000b2
:103d300022320000303000002220000068650000c0
:103d400069670000687400003d2200003522000011
:103d50003e3c00002f740000643e00000d0a00008d
:103d60002020000020200000202000002020000053
:103d70002020000020200000202000003c740000d3
:103d8000642000007769000064740000683d000052
:103d900022310000302200003e3c00002f74000061
:103da000643e00000d0a00002020000020200000da
:103db0002020000020200000202000002020000003
:103dc000202000003c740000643e00003c2f0000f6
:103dd000746400003e0d00000a2000002020000056
:103de00020200000202000002020000020200000d3
:103df000203c00002f740000723e00000d0a0000fd
:103e000020200000202000002020000020200000b2
:103e100020200000202000003c740000723e0000c2
:103e20000d0a0000202000002020000020200000bb
:103e30002020000020200000202000002020000082
:103e40003c740000643e00003c64000069760000a1
:103e5000206100006c690000676e00003d220000d8
:103e6000726900006768000074220000206300008f
:103e70006c610000737300003d2200007374000049
:103e8000796c000065350000223e0000536500009b
:103e90006c6500006374000020460000696c00003f
:103ea000653a00003c2f000064690000763e000087
:103eb0003c2f0000746400003e0d00000a2000004a
:103ec00020200000202000002020000020200000f2
:103ed0002020000020200000203c0000746400002e
:103ee0003e3c00002f740000643e00000d0a0000fc
:103ef00020200000202000002020000020200000c2
:103f00002020000020200000202000003c74000041
:103f100064200000616c0000696700006e3d0000d5
:103f2000226c000065660000742200003e3c000028
:103f30006c610000626500006c3e00000d0a00002c
:103f40002020000020200000202000002020000071
:103f50002020000020200000202000002020000061
:103f60003c6900006e70000075740000206e000057
:103f7000616d0000653d000022750000706c00005e
:103f80006f610000645f0000666900006c650000fe
:103f90006e6100006d650000222000007479000051
:103fa000706500003d220000666900006c6500003d
:103fb00022200000736900007a6500003d220000a5
:103fc00034300000222000002f3e00000d0a0000c7
:103fd00020200000202000002020000020200000e1
:103fe0002020000020200000202000003c2f0000a6
:103ff0006c610000626500006c3e00003c2f000018
:10400000746400003e0d00000a2000002020000023
:1040100020200000202000002020000020200000a0
:10402000203c00002f740000723e00000d0a0000ca
:104030002020000020200000202000002020000080
:1040400020200000202000000d0a00002020000099
:104050002020000020200000202000002020000060
:10406000202000000d0a0000202000002020000079
:104070002020000020200000202000002020000040
:104080000d0a000020200000202000002020000059
:104090002020000020200000202000003c740000b0
:1040a000723e00000d0a00002020000020200000c9
:1040b0002020000020200000202000002020000000
:1040c000202000003c740000643e00003c2f0000f3
:1040d000746400003e0d00000a2000002020000053
:1040e00020200000202000002020000020200000d0
:1040f00020200000203c0000746400003e3c0000d2
:104100002f740000643e00000d0a00002020000013
:10411000202000002020000020200000202000009f
:1041200020200000202000003c74000064200000db
:10413000616c0000696700006e3d0000226c0000a9
:1041400065660000742200003e3c00006c610000c7
:10415000626500006c3e00000d0a00002020000097
:10416000202000002020000020200000202000004f
:104170002020000020200000202000003c690000da
:104180006e700000757400002074000079700000eb
:10419000653d000022730000756200006d6900003b
:1041a00074220000206e0000616d0000653d00007b
:1041b00022750000706c00006f610000645f0000f9
:1041c00073750000626d0000697400002220000019
:1041d000766100006c750000653d00002253000010
:1041e000656e000064220000202f00003e0d0000dc
:1041f0000a200000202000002020000020200000d5
:10420000202000002020000020200000203c000092
:104210002f6c000061620000656c00003e3c0000f5
:104220002f740000643e00000d0a000020200000f2
:10423000202000002020000020200000202000007e
:10424000202000003c2f0000747200003e0d000092
:104250000a20000020200000202000002020000074
:1042600020200000203c00002f740000616200004c
:104270006c6500003e0d00000a20000020200000b8
:1042800020200000203c00002f6600006f7200001c
:104290006d3e00003c2f0000746400003e0d0000e5
:1042a0000a20000020200000203c00002f740000a5
:1042b000723e00000d0a0000202000003c2f00008c
:1042c00074610000626c0000653e00000d0a000091
:1042d000200d00000a3c00002f64000069760000f9
:1042e0003e0d00000a3c00002f6200006f640000d9
:1042f000793e00000d0a00003c2f000068740000a9
:104300006d6c00003e0d00000a6900006d61000048
:1043100067650000735f0000656300005f6c00006c
:104320006f6700006f5f00006a70000067000000a8
:10433000000000000f0b0000ffd80000ffe00000ad
:10434000001000004a46000049460000000100003d
:104350000200000000640000006400000000000093
:10436000ffec00000011000044750000636b0000ca
:1043700079000000010000000400000000000000bf
:104380003200000000ff0000ee0000000e410000bf
:10439000646f00006265000000640000c00000005f
:1043a0000000000001ff0000db00000084000000ae
:1043b00008060000060600000606000008060000c9
:1043c000060800000c080000070800000c0e0000a2
:1043d0000a080000080a00000e1000000d0d000081
:1043e0000e0d00000d100000110c00000e0d00005d
:1043f0000d0e00000c1100000f120000131400003d
:10440000131200000f180000181a00001a180000fc
:10441000182300002222000022230000272700008a
:104420002727000027270000272700002727000054
:104430000109000008080000090a0000090b00003b
:10444000090900000b0e00000b0d00000b0e000010
:10445000110e00000e0e00000e110000130d0000e2
:104460000d0e00000d0d000013180000110f0000cc
:104470000f0f00000f1100001816000017140000a5
:1044800014140000171600001a1a00001818000073
:104490001a1a00002121000020210000212700001d
:1044a00027270000272700002727000027270000d4
:1044b00027ff0000c00000001108000000460000b7
:1044c00000c80000030100002200000002110000eb
:1044d0000103000011010000ffc40000009e000065
:1044e00000010000000300000101000001010000c4
:1044f00000000000000000000000000000000000bc
:104500000000000005060000070400000301000091
:104510000201000001000000030100000100000092
:10452000000000000000000000000000000000008b
:10453000000000000001000002030000040500006c
:10454000100000000103000003030000020300004c
:104550000505000007030000050000000000000042
:10456000000100000203000004000000110500002b
:1045700021120000063100001341000061220000fa
:10458000518100003223000014710000915200009c
:1045900015070000a1b10000426200007224000073
:1045a00016f000001727000043530000633400009a
:1045b00035110000000100000303000002030000a9
:1045c00004080000050500000000000000000000d5
:1045d0000000000001000000110200002112000094
:1045e00003310000044100005132000071810000dd
:1045f000c113000061910000a1d10000224200001f
:1046000052330000f0e100007292000083f10000dc
:104610006282000073b30000ffda0000000c0000ab
:10462000030100000002000011030000110000005f
:104630003f000000dfe900004a5100001295000031
:104640001327000092610000a3c8000010cc0000f6
:10465000c695000025570000086f000077a70000ee
:10466000701a0000256b0000174a00002e7400002d
:10467000d6b300000e550000fa850000cbd900002b
:104680009aee00002d51000046160000dd2d0000be
:10469000f31d0000527f0000121e0000236900007d
:1046a00049f60000a53e0000faac0000a42200007c
:1046b0001cac000073ee00002186000022530000b5
:1046c0007ad0000030f10000d16b0000390c0000fe
:1046d000ae37000014d700007b23000029b800008b
:1046e000c83f00000f71000040130000fd290000ca
:1046f000ea7d0000d54c0000c97e0000a744000000
:104700004ee60000f0f1000094fa0000bc1f00002b
:104710007fd00000807c0000903d000047f6000044
:10472000564c0000a92f0000ca7500004fc90000b8
:10473000756f00003cb3000075380000e28a00008d
:10474000944f000099550000cd5c0000786b00008c
:10475000fc4d00002f840000679a0000519000007b
:10476000a36600009e780000ee8d0000e5b9000011
:10477000200b00001f3500005c7d000095c9000083
:104780003cf90000246d000081180000df89000062
:104790005ca30000793c0000b21100008b630000b4
:1047a000078900005d6d0000c9e500007cb50000d0
:1047b000cb240000b8eb00003717000008f9000018
:1047c00051d200007cce000083f700009ad0000098
:1047d000b050000032b80000d8c70000f36c0000f1
:1047e00080900000909d000010450000c3760000fe
:1047f000ff000000caaf000051f70000d7dc000046
:10480000ce460000562f00001a99000018780000cc
:10481000026a000036fa0000434400000421000050
:1048200036f40000af620000355200007fa60000a1
:10483000b3190000b9dc0000c6790000e4b4000040
:10484000fb8b000074ad0000566e00002b40000092
:1048500084df0000a582000013d70000df580000ad
:10486000ccc300006d2b0000e472000065c800009e
:104870004732000023f90000fb560000a4c70000e7
:1048800011720000653900001ee00000b52600002e
:10489000b926000011e9000026230000735b000028
:1048a0002e0b000000490000b24900003e09000044
:1048b00059f400009fbe0000a56b00003ac3000041
:1048c000f0590000928200005eca0000afe90000cb
:1048d0005a3600003d84000058ba00004799000095
:1048e000e89f0000db570000c891000062e3000071
:1048f000222600003b3f00002e3b0000209b0000d2
:10490000ad440000d875000024a9000066ba00007c
:10491000b6d900003713000004e60000c6200000ee
:1049200038560000bea50000be3900004e41000010
:10493000e71600001c3f0000a2e90000a557000098
:10494000d3cd0000b8da0000a6aa000017d60000f8
:1049500004910000a07d000042cc000093ec000018
:104960000e740000f7f40000a9e400002d0e000012
:10497000212e000036a00000b42800005d2a0000af
:1049800049b8000020f80000822b000078ce00001b
:1049900032e90000902d0000c8ab00004651000035
:1049a0009749000005b900002fd50000294a0000f2
:1049b000b2b2000052940000a2250000294a000073
:1049c0002252000094a20000252900004a22000083
:1049d00052940000a2250000294a00002252000043
:1049e00094a200002cfb000023c700009ae3000003
:1049f000f8f6000064b3000015890000b927000034
:104a0000e4760000077800002968000025c5000052
:104a10002d4d000096db00002a0900000ab00000be
:104a20001d6b0000924200005122000023b10000e3
:104a300039e30000acad0000a50d0000f1d8000086
:104a40004595000035850000902c00005aec0000d0
:104a50008b3600009b7800002ab40000a71b0000e2
:104a60006dd0000012e2000042c0000021400000b2
:104a7000285e0000c5260000e0fd0000a0d5000073
:104a800063250000c52300004ecb00004bca000088
:104a9000cd480000759e0000d2140000cb410000fc
:104aa000451700005b690000505200005ddb00000c
:104ab000a9490000d3a5000019440000a224000069
:104ac0000c64000001070000505600004d990000e2
:104ad000e2d20000712d00000c8c0000274600007f
:104ae000470e0000b3f20000e73400003547000035
:104af000f23e000081f00000287d0000d514000087
:104b0000daeb000049c60000cee40000d27b0000d2
:104b100072220000b4c400000c42000013750000b3
:104b200021c4000025a8000045b500007a5500000a
:104b3000bcab0000d4bb0000fdb70000a8ac000077
:104b4000b7160000c4650000dd7a0000470f0000c2
:104b50007d2600004377000053b80000b55d0000db
:104b600001760000f897000010ae0000da7f000028
:104b70002fee0000ae4c0000db770000ac7d0000a3
:104b80004bce0000cdb200003079000061a80000db
:104b9000fa7800008ece00006a3f000001cb0000d2
:104ba00032b8000015840000c6770000bb16000074
:104bb000f75c0000476e00005b3e0000ddbe0000b9
:104bc000293f000065690000bc73000090f10000ff
:104bd000dcc30000cb7a0000236d0000c4c90000d4
:104be000bc0700007da5000084a50000d55b000087
:104bf000f0af00004de30000ecac00003d5d0000b4
:104c0000c61c00005b2f0000214d0000bad9000037
:104c100029710000b58200009525000043a800001e
:104c2000503d00002bd100000f14000090a40000a4
:104c3000921400000dc100001a1000007da20000b7
:104c4000b9e1000092780000c81d0000407000002b
:104c50003c3b0000392c0000f16e000065060000ae
:104c600007e2000003810000e1d90000c96e0000e6
:104c700079ee00005d890000c105000034e200000b
:104c8000fbf3000007480000ad100000540f0000c7
:104c9000f39e000088f70000d66100009de500004b
:104ca000594c0000ea8a000064b90000db8d000066
:104cb0007ba600002b77000008d30000a15700005e
:104cc0008a8f0000db550000d2f100005124000063
:104cd00092540000a37200004ea4000093560000fe
:104ce000cc4f00000f7c0000c75600004b3800007e
:104cf000dbad0000c74200007ba80000c7b0000089
:104d00009bca0000753e0000d29e0000ada30000cb
:104d1000da4f0000eca900009cb3000067360000e9
:104d20008a47000090f100002b530000972e0000ee
:104d3000736c0000053900000d3b0000ca870000bd
:104d4000c5e10000f2190000b754000088680000b7
:104d500001a60000f57e0000538700006b2d0000c7
:104d6000246a00004b8b0000e9d30000c3ad0000b3
:104d70005c7100004f270000130c0000c0e200002f
:104d80005351000036720000d5fd0000c2a400009f
:104d90002ca30000714f0000844600005cb30000ab
:104da000641f00006def000048f200009ecd00007f
:104db00021b6000078cb0000ebc500007d020000aa
:104dc0000aff0000002e000002cd0000586800001d
:104dd000a73b0000cd830000b89b0000f4700000ea
:104de000559b00000983000069d40000e3330000f4
:104df0008fb400009632000001b500003927000092
:104e00006b610000b2e200009c4e0000d1bd0000ca
:104e100022c00000581f00006575000061db000023
:104e2000c71d0000759700003f720000eac3000034
:104e3000b78e00003f880000d65c0000f9760000c5
:104e4000290e00003d90000099930000c6a60000c6
:104e50004ce6000092cb0000e16e000036b400008a
:104e600022f60000bb6a0000282700005bf8000063
:104e700083e3000052b50000f12900004a4500001c
:104e8000920000001ec10000a57d0000ae8500005c
:104e9000ba52000094a20000252900004a22000016
:104ea00052940000a2250000294a0000225200006e
:104eb00094a20000252900004a220000529400001c
:104ec000a22500000804000058ea00000d29000097
:104ed00044550000de4b00008213000030880000c3
:104ee000c7e30000984800000d3c00008710000058
:104ef000da6c00009da90000dc4b00009b2f000035
:104f0000e4a30000a5540000f2c800006f87000071
:104f10003edc00003c6300001dc90000eeb700004d
:104f2000bc6400009eb20000d6020000894500006b
:104f3000996c000068830000a75a0000d3ab000002
:104f40008ddc000064570000722c0000e5140000a6
:104f500093f500002cb60000a65200006fa10000df
:104f6000428e0000eb110000e475000014450000c3
:104f7000409f00008b8700009dc70000b2790000b1
:104f80005a9a0000c5e600005cb20000214c000007
:104f900004250000d71300006d0c000096ba000035
:104fa00004df0000c4db0000dd540000d7780000ff
:104fb00057260000672a00009c4a00006197000005
:104fc00056bf00005372000051ff000000ae000009
:104fd00051ff000000700000bbd1000023c800009a
:104fe000eb5700009678000063d900006ccc0000fd
:104ff000f7e60000bcb60000a2b7000025c4000020
:1050000094af0000729d00005a340000520a000064
:1050100056bb00008da400002bad00005eda00003e
:10502000c7c4000066080000c6a10000bfed000074
:10503000020b00005da2000049f400009ea00000e9
:10504000926f000059cf0000146400005cd1000092
:1050500073660000da630000c8440000ab13000070
:10506000c48e00002b3600008788000085c5000034
:10507000e1990000f8f40000359c0000cb320000fc
:10508000ab490000920800005b51000048f10000ad
:105090004b4900003bfc0000b7fe0000ee9500000d
:1050a000e9f90000748c0000eb4b0000e4f800000c
:1050b000b5480000626200005d080000718d0000cc
:1050c000c5c200005c2a000048fe0000ddc00000f0
:1050d0004292000091bb0000a286000095370000bc
:1050e0001b880000b7890000e4b00000e4c00000a5
:1050f0002eaa000022830000ab75000027440000a8
:10510000b41200009b250000256000008dc0000047
:10511000a95a000003ec0000ab540000282c00004a
:1051200040430000a8620000f6790000d5be0000f0
:10513000bbfe0000270d0000cdbc0000bc05000038
:105140005a310000110d000010cb00007842000021
:10515000308d0000b00c0000179400007c5400005b
:1051600068d30000dcc800003608000079d60000d3
:1051700092ca000080b0000004240000956e000078
:10518000361a0000a9440000ea6b0000ba9400003f
:10519000ab2b0000252900004a2200005294000099
:1051a000a2250000294a00002252000094a200001b
:1051b000252900004a22000052940000a225000088
:1051c000294a000022520000b3560000b9ee000048
:1051d0007f260000ccec00009628000062980000ba
:1051e000811500006e25000096260000bcb400006a
:1051f000c97900002d8d0000db92000094a800000a
:105200000f500000e95d000072b90000f645000093
:1052100078ee00003537000017090000a71d0000d8
:10522000ceb80000b65c00008eea000094360000a4
:10523000b88200001bb2000016080000b0de0000bb
:105240007a90000074aa0000dc17000038dd00002e
:10525000e2200000972c000003e90000a87b00007a
:105260005c770000957f0000af29000032580000f5
:10527000871d0000d95200009c0d000030ca0000bc
:105280004add0000715a00002529000048b90000dd
:1052900026a80000a794000073580000d9d1000090
:1052a000c665000041c70000b991000096c8000023
:1052b0007e130000cd2d0000d4b0000094820000c9
:1052c00077a90000edf700005900000024e8000075
:1052d00005ef00005cd20000b92600005b2300004f
:1052e0008ae50000f81c0000e30c0000353b0000dc
:1052f000191100006aee0000452a00002dad0000e3
:105300002b4100003ff50000093e0000c34b0000a8
:1053100082830000ba8300001612000004380000e7
:10532000a82000005d100000f6ad00000a24000077
:10533000b8d30000a33700002e1b0000a97a00009c
:105340003bc90000dcd30000a83700004a920000ef
:105350007c4500007b560000558c0000cff3000018
:105360000c1f00000b810000978f00000612000048
:10537000f0f10000196d0000250e00002dc30000a3
:1053800025480000ddb00000b9e90000b2000000cf
:1053900024e90000d4da0000a7320000fcde00009f
:1053a00071c90000e3f100005834000044690000b6
:1053b00073210000a67b000092b200004e2900007d
:1053c0000d2100000e0b0000a11e0000823d000018
:1053d00054b800002477000070b4000019380000b1
:1053e00024440000b31a0000dfa300002bcd00000e
:1053f00072e4000032500000715100008ccc0000bb
:105400008c840000468e0000921200005d70000047
:10541000d9200000a8d800000f7d000052610000d4
:10542000fea00000ca6a00002e7c00006558000043
:105430008eec0000bc22000010e2000057050000c6
:1054400065510000de0e0000d9280000daa500003a
:105450005c8f000051170000a81e0000679200003a
:10546000e5d30000f862000065e60000624300003a
:1054700044090000c58700005b31000054e70000cc
:1054800075ad0000c43800008eea00005cba000070
:1054900048500000fc2700004a19000006a2000046
:1054a0008c9b0000c80c0000729400000191000069
:1054b00011320000663400006a7c00005deb0000e1
:1054c0005d4a000082920000149300007491000075
:1054d000707c00008d720000c7ca000063e5000008
:1054e0004c910000023c0000843900002e25000091
:1054f000bea50000849b0000a9bd0000df0e0000d7
:10550000e1e70000553900007c9700003ef60000fe
:1055100079be000031c60000e345000053b1000031
:10552000e2370000225c000089a500006100000055
:1055300028260000c1210000a37f0000e215000022
:1055400001c70000f312000031790000ce6b0000ab
:1055500099ca00004708000093150000a6960000b5
:10556000fc76000095740000971000000a6c0000a3
:1055700085910000f0a80000f4f2000034b90000aa
:105580004cb70000511200008c4000002d7100004b
:105590008c89000005850000b1240000b1f40000f2
:1055a00032d50000a95900008aff00000050000019
:1055b000391c00003c6c00007cf40000d4e20000c8
:1055c0005d820000e96d00004e4100008ef2000097
:1055d000ccc40000b6e10000fc250000453b000003
:1055e00080eb000053320000f9470000209f0000cc
:1055f000c91e0000c071000088d1000008880000aa
:10560000c372000024c800009c5c000009f900007f
:10561000a94a0000d294000086b50000e8b100005d
:10562000537000005237000058880000a5ce0000db
:10563000e0000000d537000068de0000a56a000029
:105640008b940000c7cd0000932600002449000081
:10565000087a000044350000044a00006926000072
:10566000ea6d000046f600000afb0000abae000049
:10567000b35e0000093b0000b3c80000396c0000b5
:10568000acc100006a0b0000aa900000ca5f0000d5
:105690004adc0000484200005cf90000b74a000004
:1056a00056ab000003d300004f2a00009ee4000028
:1056b0009cb50000e86e000062e0000071d40000bc
:1056c000c79f00003b2c0000f29a0000656b0000b1
:1056d0005ee60000101b0000b6f20000a5340000da
:1056e0007f9b0000db50000025470000290d0000d3
:1056f000c44e00002f32000074a900000c350000d9
:10570000eab4000053d20000ad940000aa74000077
:105710005e430000c9f10000f90900007139000082
:1057200036390000a31a00003c4700002623000081
:10573000210000003a5900003db00000545a00001a
:10574000529d0000d0280000807d000095100000d0
:10575000397f0000395f00001f3c0000b1100000dd
:1057600031c3000018010000744700002a740000d3
:10577000bfda00000ad90000baf70000dbfe000023
:10578000ba540000dc1400009dce000031a80000d7
:1057900093d400009169000070230000a92b000041
:1057a00048ae000046f20000701d00009ef60000aa
:1057b0002db9000008540000e61000001c7a00001b
:1057c000383e0000b4a1000056b2000088f300008b
:1057d000b8aa00008cde00006796000099900000d7
:1057e000c3620000b8dc000058e600004e52000022
:1057f0001a7200000b720000695e0000c6db000038
:10580000502700006fca0000b1b80000da6a00003b
:1058100027090000909d0000139b0000f25c00002f
:10582000866d000096da0000951300001a970000bc
:1058300024b700001d4500004da80000341b0000e7
:1058400056e60000cab50000b29200002faf00007b
:105850004a8b000095650000ba8d0000d111000050
:10586000a8320000b4c90000be1e00009ba80000c2
:10587000569f00004acc000007ea000007260000ff
:10588000188f0000f225000023130000f47f0000b1
:105890001fe50000e1f50000fd6700006f7e0000dd
:1058a000ce970000b6ef000077ba0000b488000081
:1058b00032db00009f0a000034e60000410d0000ca
:1058c000c96900000f2000001ebb00005c480000fa
:1058d00058bf0000df520000082b00004c590000a8
:1058e000e190000091170000d01a000086a100008e
:1058f000d0af00007a55000041bc0000ff0000005e
:1059000025cb000049c800009c14000068860000f8
:10591000263d0000d53000000c920000e771000029
:10592000d5a30000e2db0000b34f0000bebf0000c3
:10593000323900006659000030710000086700002d
:105940001c190000cbe500001c5b00003f4f00006d
:10595000277a000010d900006cd80000aeda0000f1
:105960002b690000b8220000a56a0000ae340000d8
:10597000aaa400007e4100009c8900009b6f0000eb
:10598000099b00008f1b00007c96000016f40000ad
:1059900067e2000095ed0000bb6100004a210000b5
:1059a00041cd00007f840000d46c00007e5b0000cd
:1059b000ca650000e05c0000cfb300000e1a0000d2
:1059c00063460000ddde00000b5300009b970000e3
:1059d000b4ea00005b4800003a0000003da6000069
:1059e00088af0000b4aa000034de00005bc80000ed
:1059f00062630000a3670000d70600002a71000060
:105a000072140000d84b0000256b0000548d00007c
:105a1000ab1f000011220000c8170000b694000060
:105a2000a22a00001e160000542c00007c39000041
:105a300090e10000e3f100001984000017dc000091
:105a4000fa3c000094d70000a3b00000ea41000037
:105a50000023000073330000821c0000213d000081
:105a60007d9d00006ac30000350b00004ff8000068
:105a700007790000c88a000077eb0000965c000000
:105a800030020000047d0000c5c400001296000032
:105a9000fb030000669d00000dbc0000694a000089
