:020000040000FA
:06000000C7EFA5F012009D
:020006001200E6
:06000800EFEF63F01200AF
:02000E00FE00F2
:0100100000EF
:0100110000EE
:020012000000EC
:0200140000FFEB
:020016000000E8
:060018007EEF64F012000F
:02001E000A00D6
:10002000D94B010000010000E700000016000000AD
:100030005D0F000002000000140000005B0F0000D4
:1000400002000000D34B0100F90000000600000090
:1000500012000000590F0000020000001100000013
:100060005F0F000001000000100000007F0E000084
:10007000010000000E000000570F00000200000009
:10008000CF490100FF0100000100000041650000B0
:08009000FF0000000100000068
:08009800D9CFE6FFE1CFD9FF4B
:1000A000E652DF6A040EDF5C01E37CD0DF50270DEF
:1000B000F3CFE9FFF4CFEAFF0E0EE926030EEA22A2
:1000C000EF6ADF50270DF3CFE9FFF4CFEAFF0E0E02
:1000D000E926030EEA221B0EE926000EEA22EE6A4A
:1000E000ED6ADF50270DF3CFE9FFF4CFEAFF0E0EE4
:1000F000E926030EEA22220EE926000EEA222C0E41
:10010000EE6E010EEE6EEE6AEE6ADF50270DF3CF53
:10011000E9FFF4CFEAFF0E0EE926030EEA22260ECF
:10012000E926000EEA22EF80DF50270DF3CFE9FF2A
:10013000F4CFEAFF0E0EE926030EEA22260EE92688
:10014000000EEA22EF92DF50270DF3CFE9FFF4CF44
:10015000EAFF0E0EE926030EEA22260EE926000E1D
:10016000EA22EF94DF50270DF3CFE9FFF4CFEAFF47
:100170000E0EE926030EEA22260EE926000EEA22DA
:10018000EF96DF50270DF3CFE9FFF4CFEAFF0E0E15
:10019000E926030EEA22260EE926000EEA22EF984F
:1001A000DF2A80D70301006B040E016F0D6BAA6B71
:1001B000E552E552E7CFD9FF1200D9CFE6FFE1CFF4
:1001C000D9FF060EE126010EDB6ADF6A040EDF5C52
:1001D00001E3E1D2DF50270DF3CFE9FFF4CFEAFFCF
:1001E0000E0EE926030EEA221B0EE926000EEA2275
:1001F000EE50ED1001E0CDD2DF50270DF3CFE9FF37
:10020000F4CFEAFF0E0EE926030EEA22EF5001E1D9
:10021000C0D2DF50270DF3CFE9FFF4CFEAFF0E0E77
:10022000E926030EEA22EF0401E1B3D2DF50270DE5
:10023000F3CFE9FFF4CFEAFF0E0EE926030EEA2220
:10024000260EE926000EEA22EF50100B17E0DF50D1
:10025000270DF3CFE9FFF4CFEAFF0E0EE926030ED8
:10026000EA221D0EE926000EEA22EF50E66EDFCFED
:10027000E6FFBEEC14F0E552E5528BD2DF50270DBD
:10028000F3CFE9FFF4CFEAFF0E0EE926030EEA22D0
:10029000EF5003082AE1DF50270DF3CFE9FFF4CF39
:1002A000EAFF0E0EE926030EEA22EE52060EE926BA
:1002B000000EEA22E9CF14F0EACF15F014C0E6FFF1
:1002C00015C0E6FF83EC96F0E552E55200090CE01C
:1002D000DF50270DF3CFE9FFF4CFEAFF0E0EE9263A
:1002E000030EEA22040EEF6E54D2DF50270DF3CF37
:1002F000E9FFF4CFEAFF0E0EE926030EEA22EF50E3
:10030000040837E1DF50270DF3CFE9FFF4CFEAFF10
:100310000E0EE926030EEA22EE52E9CF14F0EACFE0
:1003200015F014C0E6FF15C0E6FFDF50270DF3CF30
:10033000E9FFF4CFEAFF0E0EE926030EEA22EE52A1
:10034000060EE926000EEA22E9CF16F0EACF17F0F2
:1003500016C0E6FF17C0E6FFCBEC96F0E552E5527B
:10036000E552E552000905E0DFCFE6FF3EEC12F072
:10037000E552DF50270DF3CFE9FFF4CFEAFF0E0E71
:10038000E926030EEA221E0EE926000EEA22EE50AE
:100390000F01135D146EEE501459156EEE50155981
:1003A000166EEE501659176E020E14C0DBFF030EC8
:1003B00015C0DBFF040E16C0DBFF050E17C0DBFF08
:1003C000020EDBCF14F0030EDBCF15F0040EDBCFF3
:1003D00016F0050EDBCF17F0DF50270DF3CFE9FF46
:1003E000F4CFEAFF0E0EE926030EEA22220EE926DA
:1003F000000EEA221450EE5C1550EE581650EE58DE
:100400001750EE5801E3C5D19BEC78F0000901E1EB
:10041000C2D1DF50270DF3CFE9FFF4CFEAFF0E0E74
:10042000E926030EEA221E0EE926000EEA2213CF69
:10043000EEFF14CFEEFF15CFEEFF16CFEEFFDF502D
:10044000270DF3CFE9FFF4CFEAFF0E0EE926030EE6
:10045000EA22220EE926000EEA22EECF14F0EECFB9
:1004600015F0EECF16F0EFCF17F0010E1F0B07E0DF
:10047000D8901436153616361736E806F9E1B80E58
:10048000145C0B0E1558000E1658000E175817E284
:10049000DF50270DF3CFE9FFF4CFEAFF0E0EE92678
:1004A000030EEA22220EE926000EEA22D890EF3649
:1004B000010EEB36020EEB36030EEB3614D0DF5096
:1004C000270DF3CFE9FFF4CFEAFF0E0EE926030E66
:1004D000EA22220EE926000EEA22B80EEE6E0B0E7C
:1004E000EE6EEE6AEE6ADF50270DF3CFE9FFF4CF30
:1004F000EAFF0E0EE926030EEA221A0EE926000E86
:10050000EA22EF2ADF50270DF3CFE9FFF4CFEAFF0D
:100510000E0EE926030EEA22EF50080A01E1FDD093
:100520000F0A01E1DFD00E0A01E1DCD00F0A24E05E
:10053000040A07E0070A01E00BD1DE52020EDD6E6D
:1005400007D1DF50270DF3CFE9FFF4CFEAFF0E0EFE
:10055000E926030EEA221A0EE926000EEA22EF50DF
:10056000030804E3DE52120EDD6E05D0DFCFE6FF96
:100570002AEC13F0E552ECD0DF50270DF3CFE9FF62
:10058000F4CFEAFF0E0EE926030EEA221A0EE92640
:10059000000EEA22EF50030866E3DF50270DF3CF89
:1005A000E9FFF4CFEAFF0E0EE926030EEA22260E3B
:1005B000E926000EEA22EF50020B51E0DF50270D32
:1005C000F3CFE9FFF4CFEAFF0E0EE926030EEA228D
:1005D000260EE926000EEA22EF50040B12E1DF504E
:1005E000270DF3CFE9FFF4CFEAFF0E0EE926030E45
:1005F000EA220F0EE926000EEA22010EEFCFDBFF02
:100600002DD0DF50270DF3CFE9FFF4CFEAFF0E0E18
:10061000E926030EEA22260EE926000EEA22EF86DC
:10062000DF50270DF3CFE9FFF4CFEAFF0E0EE926E6
:10063000030EEA22260EE926000EEA22EF92DF5090
:10064000270DF3CFE9FFF4CFEAFF0E0EE926030EE4
:10065000EA22260EE926000EEA22EF8003D0DE52BF
:10066000100EDD6E3ED0DF50270DF3CFE9FFF4CF43
:10067000EAFF0E0EE926030EEA22260EE926000EF8
:10068000EA22EF50020B1EE0DF50270DF3CFE9FF07
:10069000F4CFEAFF0E0EE926030EEA22260EE92623
:1006A000000EEA22EF96DF50270DF3CFE9FFF4CFDB
:1006B000EAFF0E0EE926030EEA22260EE926000EB8
:1006C000EA22EF92DE52110EDD6EDF50270DF3CFDE
:1006D000E9FFF4CFEAFF0E0EE926030EEA22070E29
:1006E000EF6E36D0DF50270DF3CFE9FFF4CFEAFFEE
:1006F0000E0EE926030EEA221A0EE926000EEA2261
:10070000EF50030804E3DE52010EDD6E05D0DFCFAB
:10071000E6FF2AEC13F0E5521BD0DF50270DF3CF94
:10072000E9FFF4CFEAFF0E0EE926030EEA221A0EC5
:10073000E926000EEA22EF50030804E3DE52100E11
:10074000DD6E05D0DFCFE6FF2AEC13F0E55200D0D6
:10075000010EDB501EE0010EDBCFE6FFDFCFE6FF30
:10076000BEEC14F0E552E552010EDB50100811E02A
:10077000DF50270DF3CFE9FFF4CFEAFF0E0EE92695
:10078000030EEA22180EE926000EEA22010EEE6E92
:10079000ED6ADF2A1BD5060EE15C02E2E16AE55252
:1007A000E16EE552E7CFD9FF1200D9CFE6FFE1CFE6
:1007B000D9FF2B0EE12603010D5134E0AA51270D7C
:1007C000F3CFE9FFF4CFEAFF0E0EE926030EEA228B
:1007D0001B0EE926000EEA22EE50ED1012E10C513C
:1007E0000AE00CC3E6FF0BC3E6FFBEEC14F0E552D3
:1007F000E55203010C6BFE0EAA6F0D6B010EFFD1CB
:1008000011D0AA51270DF3CFE9FFF4CFEAFF0E0E66
:10081000E926030EEA22EF50060802E075EC1AF012
:10082000000EEDD1140EE66EE66AD9CFE6FFDACF00
:10083000E6FFE5EC78F0E552E552E552E5520009B5
:1008400001E1D9D1FD0EDBCFE9FFFE0EDBCFEAFFE0
:10085000060EE926000EEA22150EEECFDBFF160E7D
:10086000EECFDBFF170EEECFDBFF180EEECFDBFF78
:10087000190E07CFDBFF1A0E08CFDBFF1B0E09CFC7
:10088000DBFF1C0E0ACFDBFF1D0EDB6A060EF36ECC
:100890001E0EF3CFDBFFF90EDBCF08F0FA0EDBCF35
:1008A00009F01F0E08C0DBFF200E09C0DBFF1F0E82
:1008B000DBCFE6FF200EDBCFE6FFE9EC86F0E5526A
:1008C000E5521F0EF3CFDBFF200EF4CFDBFF210E2E
:1008D000DB6A220EDB6A250EDB6A0C0EE66ED9504F
:1008E000150FE66E000EDA20E66ED950250FE66E83
:1008F000000EDA20E66ED950210FE66E000EDA20E7
:10090000E66E66EC9DF0146E070EE15E1450100E5C
:10091000DBCF08F0110EDBCF09F0230E08C0DBFFA0
:10092000240E09C0DBFF100EDB6A110EDB6A140E09
:10093000E66ED9CFE6FFDACFE6FFD950250FE66E97
:10094000000EDA20E66ED950210FE66E000EDA2096
:10095000E66E66EC9DF0146E070EE15E1450290EF3
:10096000DB6A2A0EDB6A290EDBCF14F02A0EDBCFFE
:1009700015F0F90EDBCF16F0FA0EDBCF17F0140EE0
:10098000165E000E175A1650145C175015582AE2BE
:10099000D950260FE66E000EDA20E66EB9EC78F03C
:1009A000E552E552010EE66ED950260FE66E000EB6
:1009B000DA20E66ED950250FE66E000EDA20E66EDC
:1009C000D950210FE66E000EDA20E66E66EC9DF03F
:1009D000146E070EE15E1450290EDB2A2A0E01E385
:1009E000DB2AC1D7210EDB1C146E220EDB1C156E18
:1009F00014C0E6FF15C0E6FFE9EC86F0E552E552CB
:100A0000210EF3CFDBFF220EF4CFDBFF230EDBCF73
:100A100014F0240EDBCF15F0210EDB50141803E187
:100A2000220EDB50151801E0E6D0D9500C0FE96E0C
:100A3000DACFEAFFEF50F00BE842E842E842E84242
:100A4000040DF350156A220F146E000E152214C007
:100A5000E6FF15C0E6FF15EC79F0E552E552D9CF77
:100A6000E6FFDACFE6FF89EC1AF0E552E552D950FD
:100A70000C0FE96EDACFEAFFEF50F00BE842E842E4
:100A8000E842E842040DF350166E176AF90EDBCF08
:100A900008F0FA0EDBCF09F01650085C146E175000
:100AA0000958156E270E14C0DBFF280E15C0DBFF9A
:100AB000FD0EDBCFE6FFFE0EDBCFE6FFD9CFE6FF74
:100AC000DACFE6FFEEEC0CF0E552E552E552E552E6
:100AD000E76E140EE7CFDBFFDB50FE0802E126D005
:100AE00025D0270EDBCFE6FF280EDBCFE6FFD9CFE0
:100AF000E6FFDACFE6FFFD0EDBCFE6FFFE0EDBCF33
:100B0000E6FF140EDBCFE6FF86D8146E070EE15E1B
:100B10001450000903E0010E72D008D0140EDBCF90
:100B2000AAF30301010E0D6F000E69D07FEC79F07E
:100B3000270EDBCF14F0280EDBCF15F0166A176AEC
:100B4000D950080FE96EDACFEAFF1450EE2615509F
:100B5000EE221650EE221750EE22D9500D0FE96EFC
:100B6000DACFEAFFEF50020B08E1D9500D0FE96E22
:100B7000DACFEAFFEF50010B0AE0D950080FE96E17
:100B8000DACFEAFFEE2A000EEE22EE22EE22040E6B
:100B9000E66ED950040FE96EDACFEAFFEECFE6FF3A
:100BA000EECFE6FFEECFE6FFEFCFE6FFD950080F1E
:100BB000E96EDACFEAFFEECFE6FFEECFE6FFEECF4B
:100BC000E6FFEFCFE6FFDECFE6FFDDCFE6FF020E6A
:100BD000DBCFE6FF030EDBCFE6FFFD0EDBCFE6FF4C
:100BE000FE0EDBCFE6FF76EC14F0146E0F0EE15E26
:100BF0001450010E04D07FEC79F0010E00D0146E79
:100C00002B0EE15C02E2E16AE552E16E1450E5521E
:100C1000E7CFD9FF1200D9CFE6FFE1CFD9FF020E0F
:100C2000E126010EDB6ADF6AFE0EDB50270DF3CFF3
:100C3000E9FFF4CFEAFF0E0EE926030EEA22180EB2
:100C4000E926000EEA22EE50ED103DE0FE0EDB50EC
:100C5000270DF3CFE9FFF4CFEAFF0E0EE926030ECE
:100C6000EA22180EE926000EEA22EECF14F0EFCFAA
:100C700015F0166A176AFE0EDB50270DF3CFE9FF59
:100C8000F4CFEAFF0E0EE926030EEA22100EE92643
:100C9000000EEA221450EE261550EE221650EE22D7
:100CA0001750EE22FE0EDB50270DF3CFE9FFF4CFF5
:100CB000EAFF0E0EE926030EEA22180EE926000EC0
:100CC000EA22EE6AED6AFE0EDB50270DF3CFE9FF54
:100CD000F4CFEAFF0E0EE926030EEA221A0EE926E9
:100CE000000EEA22EF6AFE0EDB50270DF3CFE9FF7C
:100CF000F4CFEAFF0E0EE926030EEA221E0EE926C5
:100D0000000EEA2213CFEEFF14CFEEFF15CFEEFF59
:100D100016CFEEFFFE0EDB50270DF3CFE9FFF4CF29
:100D2000EAFF0E0EE926030EEA22220EE926000E45
:100D3000EA222C0EEE6E010EEE6EEE6AEE6AFE0EEA
:100D4000DB50270DF3CFE9FFF4CFEAFF0E0EE926C3
:100D5000030EEA22EF0401E0F7D17FEC79F0DE52D6
:100D6000010EDD6E0301022B000E03230423052375
:100D7000FE0EDB50270DF3CFE9FFF4CFEAFF0E0E96
:100D8000E926030EEA22100EE926000EEA2202C32B
:100D9000EEFF03C3EEFF04C3EEFF05C3EEFFFE0E3E
:100DA000DB50270DF3CFE9FFF4CFEAFF0E0EE92663
:100DB000030EEA22180EE926000EEA22EE6AED6A18
:100DC000F80EDBCF18F0F90EDBCF19F01A6A1B6AA8
:100DD000FA0EDBCFE9FFFB0EDBCFEAFF040EE926BC
:100DE000000EEA22EE501824146EEE501920156EF3
:100DF000EE501A20166EEE501B20176E142A000EAD
:100E0000152216221722FE0EDB50270DF3CFE9FF25
:100E1000F4CFEAFF0E0EE926030EEA22140EE926AD
:100E2000000EEA2214C0EEFF15C0EEFF16C0EEFF62
:100E300017C0EEFFFA0EDBCFE9FFFB0EDBCFEAFFB8
:100E40000D0EE926000EEA22EF50020B01E11BD144
:100E5000FC0EDBCFE9FFFD0EDBCFEAFFEF50E66EC5
:100E6000FE0EDB50270DF3CFE9FFF4CFEAFF0E0EA5
:100E7000E926030EEA22EE52E552E750EF6EFC0E31
:100E8000DBCFE9FFFD0EDBCFEAFF010EE926000E06
:100E9000EA22EF50E66EFE0EDB50270DF3CFE9FF9E
:100EA000F4CFEAFF0E0EE926030EEA22EE52010EFF
:100EB000E926000EEA22E552E750EF6EFC0EDBCF8A
:100EC000E9FFFD0EDBCFEAFF020EE926000EEA2263
:100ED000EF50E66EFE0EDB50270DF3CFE9FFF4CFA7
:100EE000EAFF0E0EE926030EEA22EE52020EE92672
:100EF000000EEA22E552E750EF6EFC0EDBCFE9FF71
:100F0000FD0EDBCFEAFF030EE926000EEA22EF50CA
:100F1000E66EFE0EDB50270DF3CFE9FFF4CFEAFFBC
:100F20000E0EE926030EEA22EE52030EE926000E0B
:100F3000EA22E552E750EF6EFC0EDBCFE9FFFD0E33
:100F4000DBCFEAFF040EE926000EEA22EF50E66E40
:100F5000FE0EDB50270DF3CFE9FFF4CFEAFF0E0EB4
:100F6000E926030EEA22EE52040EE926000EEA22DA
:100F7000E552E750EF6EFC0EDBCFE9FFFD0EDBCF55
:100F8000EAFF050EE926000EEA22EF50E66EFE0E9D
:100F9000DB50270DF3CFE9FFF4CFEAFF0E0EE92671
:100FA000030EEA22EE52050EE926000EEA22E55271
:100FB000E750EF6EFC0EDBCFE9FFFD0EDBCFEAFF63
:100FC000060EE926000EEA22EECF14F0EECF15F061
:100FD000EECF16F0EFCF17F0FE0EDB50270DF3CF5C
:100FE000E9FFF4CFEAFF0E0EE926030EEA22EE52E5
:100FF000060EE926000EEA2214C0EEFF15C0EEFF31
:1010000016C0EEFF17C0EEFFFA0EDBCFE9FFFB0EB6
:10101000DBCFEAFFEECF14F0EFCF15F0FE0EDB5082
:10102000270DF3CFE9FFF4CFEAFF0E0EE926030EFA
:10103000EA220D0EE926000EEA2214C0EEFF15C0CA
:10104000EDFF120EDF6EFE0EDB50270DF3CFE9FF32
:10105000F4CFEAFF0E0EE926030EEA22180EE92667
:10106000000EEA22010EEE6EED6AFE0EDB50270D39
:10107000F3CFE9FFF4CFEAFF0E0EE926030EEA22D2
:10108000020EEF6E5FD0040EE66EFA0EDBCFE9FFC4
:10109000FB0EDBCFEAFF040EE926000EEA22EECFBC
:1010A000E6FFEECFE6FFEECFE6FFEFCFE6FFFA0E6C
:1010B000DBCFE9FFFB0EDBCFEAFF080EE926000ECF
:1010C000EA22EECFE6FFEECFE6FFEECFE6FFEFCF70
:1010D000E6FFFA0EDBCFE9FFFB0EDBCFEAFFEECF38
:1010E000E6FFEFCFE6FFFA0EDBCFE9FFFB0EDBCF2B
:1010F000EAFF020EE926000EEA22EECFE6FFEFCF6E
:10110000E6FFFC0EDBCFE6FFFD0EDBCFE6FF76EC65
:1011100014F0146E0F0EE15E1450DF6AFE0EDB5009
:10112000270DF3CFE9FFF4CFEAFF0E0EE926030EF9
:10113000EA22EE52060EE926000EEA22EE6AEE6A76
:10114000EE6AEE6AC3EF0CF0FA0EDBCFE9FFFB0E9E
:10115000DBCFEAFF0D0EE926000EEA22EF50040B6A
:1011600010E07FEC79F0DE52010EDD6EFE0EDBCF7B
:10117000E6FF2AEC13F0E552010EE2EF0CF0C3EFAC
:101180000CF0FE0EDB50270DF3CFE9FFF4CFEAFFA2
:101190000E0EE926030EEA22100EE926000EEA22C0
:1011A000EECF14F0EECF15F0EECF16F0EFCF17F034
:1011B000FA0EDBCFE9FFFB0EDBCFEAFF080EE926D4
:1011C000000EEA221450EE1809E11550EE1806E15F
:1011D0001650EE1803E11750EE1800E10EE0FA0E7B
:1011E000DBCFE9FFFB0EDBCFEAFF0D0EE926000E99
:1011F000EA22EF50010B01E168D3FE0EDB50270D10
:10120000F3CFE9FFF4CFEAFF0E0EE926030EEA2240
:10121000EF50020801E0A1D0FA0EDBCFE9FFFB0E90
:10122000DBCFEAFF0D0EE926000EEA22EF50100B8D
:1012300001E18DD0F80EDBCF14F0F90EDBCF15F005
:10124000166A176AFA0EDBCFE9FFFB0EDBCFEAFF67
:10125000040EE926000EEA22EE501426EE50152266
:10126000EE501622EE501722FE0EDB50270DF3CF64
:10127000E9FFF4CFEAFF0E0EE926030EEA22140E70
:10128000E926000EEA2214C0EEFF15C0EEFF16C0DC
:10129000EEFF17C0EEFFFE0EDB50270DF3CFE9FF88
:1012A000F4CFEAFF0E0EE926030EEA221A0EE92613
:1012B000000EEA22EF6AFE0EDB50270DF3CFE9FFA6
:1012C000F4CFEAFF0E0EE926030EEA221E0EE926EF
:1012D000000EEA2213CFEEFF14CFEEFF15CFEEFF84
:1012E00016CFEEFFFE0EDB50270DF3CFE9FFF4CF54
:1012F000EAFF0E0EE926030EEA22060EEF6ED95023
:10130000F80FE96EFF0EDA20EA6E000ED880EE5478
:10131000000EED5416E2FE0EDB50270DF3CFE9FF71
:10132000F4CFEAFF0E0EE926030EEA221B0EE92691
:10133000000EEA22F80EDBCFEEFFF90EDBCFEDFF59
:1013400005D07FEC79F0DE52010EDD6E05D07FEC2A
:1013500079F0DE52010EDD6EB7D2FE0EDB50270DA6
:10136000F3CFE9FFF4CFEAFF0E0EE926030EEA22DF
:10137000EF50050801E0D6D0FA0EDBCFE9FFFB0EF7
:10138000DBCFEAFF0D0EE926000EEA22EF50020B3A
:1013900001E1C2D0F80EDBCF18F0F90EDBCF19F067
:1013A0001A6A1B6AFA0EDBCFE9FFFB0EDBCFEAFFFE
:1013B000040EE926000EEA22EE501824146EEE50B8
:1013C0001920156EEE501A20166EEE501B20176E67
:1013D000142A000E152216221722FE0EDB50270DAE
:1013E000F3CFE9FFF4CFEAFF0E0EE926030EEA225F
:1013F000140EE926000EEA2214C0EEFF15C0EEFF1F
:1014000016C0EEFF17C0EEFFFA0EDBCFE9FFFB0EB2
:10141000DBCFEAFF0D0EE926000EEA22EF50100B9B
:1014200010E0100EDF6EFE0EDB50270DF3CFE9FF4C
:10143000F4CFEAFF0E0EE926030EEA22060EEF6E47
:1014400033D0120EDF6EFE0EDB50270DF3CFE9FF17
:10145000F4CFEAFF0E0EE926030EEA22020EEF6E2B
:10146000FE0EDB50270DF3CFE9FFF4CFEAFF0E0E9F
:10147000E926030EEA22100EE926000EEA22EE2AE1
:10148000EE22EE22EE22FE0EDB50270DF3CFE9FF17
:10149000F4CFEAFF0E0EE926030EEA22180EE92623
:1014A000000EEA22EE6AED6AFE0EDB50270DF3CF46
:1014B000E9FFF4CFEAFF0E0EE926030EEA22260E1C
:1014C000E926000EEA22EF80D950F80FE96EFF0EF0
:1014D000DA20EA6E000ED880EE54000EED5416E2CB
:1014E000FE0EDB50270DF3CFE9FFF4CFEAFF0E0E1F
:1014F000E926030EEA221B0EE926000EEA22F80E68
:10150000DBCFEEFFF90EDBCFEDFF05D07FEC79F0FE
:10151000DE52010EDD6E05D07FEC79F0DE52010E59
:10152000DD6ED2D1FA0EDBCFE9FFFB0EDBCFEAFF97
:10153000040EE926000EEA22EECF14F0EECF15F0ED
:10154000EECF16F0EFCF17F0FE0EDB50270DF3CFE6
:10155000E9FFF4CFEAFF0E0EE926030EEA22140E8D
:10156000E926000EEA221450EE1809E11550EE1893
:1015700006E11650EE1803E11750EE1800E106E000
:101580007FEC79F0DE52010EDD6E1CD2F80EDBCF5F
:1015900014F0F90EDBCF15F0166A176AFA0EDBCFDE
:1015A000E9FFFB0EDBCFEAFF040EE926000EEA227C
:1015B000EE501426EE501522EE501622EE50172251
:1015C000FE0EDB50270DF3CFE9FFF4CFEAFF0E0E3E
:1015D000E926030EEA22140EE926000EEA2214C0C0
:1015E000EEFF15C0EEFF16C0EEFF17C0EEFFFE0EB9
:1015F000DB50270DF3CFE9FFF4CFEAFF0E0EE9260B
:10160000030EEA22EF50060801E0BAD0FA0EDBCF53
:10161000E9FFFB0EDBCFEAFF0D0EE926000EEA2202
:10162000EF50100B42E0FE0EDB50270DF3CFE9FF29
:10163000F4CFEAFF0E0EE926030EEA22260EE92673
:10164000000EEA22EF50020B30E0FE0EDB50270DB9
:10165000F3CFE9FFF4CFEAFF0E0EE926030EEA22EC
:10166000260EE926000EEA22EF96FE0EDB50270D2D
:10167000F3CFE9FFF4CFEAFF0E0EE926030EEA22CC
:10168000260EE926000EEA22EF92FE0EDB50270D11
:10169000F3CFE9FFF4CFEAFF0E0EE926030EEA22AC
:1016A000260EE926000EEA22EF80FA0EDBCFE9FFD4
:1016B000FB0EDBCFEAFF0D0EE926000EEA22EF500B
:1016C000010B34E0110EDF6EFE0EDB50270DF3CF61
:1016D000E9FFF4CFEAFF0E0EE926030EEA22180E08
:1016E000E926000EEA22010EEE6EED6AFE0EDB50D8
:1016F000270DF3CFE9FFF4CFEAFF0E0EE926030E24
:10170000EA22140EE926000EEA22EE2AEE22EE224A
:10171000EE22FE0EDB50270DF3CFE9FFF4CFEAFFF8
:101720000E0EE926030EEA22090EEF6ED950F80FCD
:10173000E96EFF0EDA20EA6E000ED880EE54000E3D
:10174000ED5418E2FE0EDB50270DF3CFE9FFF4CF86
:10175000EAFF0E0EE926030EEA221B0EE926000E12
:10176000EA22F80EDBCFEEFFF90EDBCFEDFF100E15
:10177000DF6E05D07FEC79F0DE52010EDD6EA4D075
:10178000FE0EDB50270DF3CFE9FFF4CFEAFF0E0E7C
:10179000E926030EEA22EF50090819E17FEC79F0FF
:1017A000DE52010EDD6EFA0EDBCFE9FFFB0EDBCF62
:1017B000EAFF0D0EE926000EEA22EF50100B06E0BC
:1017C000FE0EDBCFE6FF2AEC13F0E5527DD0FE0ED5
:1017D000DB50270DF3CFE9FFF4CFEAFF0E0EE92629
:1017E000030EEA22EF50070849E17FEC79F0DE5260
:1017F000010EDD6EFA0EDBCFE9FFFB0EDBCFEAFF59
:101800000D0EE926000EEA22EF50010B36E0100E15
:10181000DF6EFE0EDB50270DF3CFE9FFF4CFEAFFBA
:101820000E0EE926030EEA22140EE926000EEA2225
:10183000EE2AEE22EE22EE22FA0EDBCFE9FFFB0EBD
:10184000DBCFEAFF0D0EE926000EEA22EF50100B67
:1018500007E0FE0EDBCFE6FF2AEC13F0E5520DD0D9
:10186000FE0EDB50270DF3CFE9FFF4CFEAFF0E0E9B
:10187000E926030EEA22080EEF6E26D0FE0EDB509C
:10188000270DF3CFE9FFF4CFEAFF0E0EE926030E92
:10189000EA22EF50080818E17FEC79F0DE52010EE1
:1018A000DD6EFA0EDBCFE9FFFB0EDBCFEAFF0D0E9C
:1018B000E926000EEA22EF50100B06E0FE0EDBCF09
:1018C000E6FF2AEC13F0E5525ED07FEC79F0DE52B1
:1018D000010EDD6EFE0EDB50270DF3CFE9FFF4CFD6
:1018E000EAFF0E0EE926030EEA22EF5005084BE14F
:1018F000040EE66EFA0EDBCFE9FFFB0EDBCFEAFF4C
:10190000040EE926000EEA22EECFE6FFEECFE6FF58
:10191000EECFE6FFEFCFE6FFFA0EDBCFE9FFFB0EDF
:10192000DBCFEAFF080EE926000EEA22EECFE6FF43
:10193000EECFE6FFEECFE6FFEFCFE6FFFA0EDBCF0E
:10194000E9FFFB0EDBCFEAFFEECFE6FFEFCFE6FFCE
:10195000FA0EDBCFE9FFFB0EDBCFEAFF020EE92632
:10196000000EEA22EECFE6FFEFCFE6FFFC0EDBCF64
:10197000E6FFFD0EDBCFE6FF76EC14F0146E0F0EE3
:10198000E15E1450DF6A03010C6BDF50000812E2C5
:10199000010EDB500AE0DFCFE6FFFE0EDBCFE6FFF5
:1019A000BEEC14F0E552E55205D0FE0EDBCF0BF392
:1019B000DFCF0CF3010EDB5003E0010E03D002D0A9
:1019C000000E00D0146E020EE15C02E2E16AE55204
:1019D000E16E1450E552E7CFD9FF1200D9CFE6FFF0
:1019E000E1CFD9FF020EE126DE52FE0EDD6EDF6A88
:1019F000040EDF5C01E397D0DF50270DF3CFE9FF42
:101A0000F4CFEAFF0E0EE926030EEA22EF5001E1C1
:101A100088D0DF50270DF3CFE9FFF4CFEAFF0E0E99
:101A2000E926030EEA220B0EE926000EEA22EECF8B
:101A300014F0EFCF15F0FD0EDBCFE9FFFE0EDBCF8C
:101A4000EAFF020EE926000EEA22EECF16F0EFCFF3
:101A500017F01650141802E11750151862E1DF5004
:101A6000270DF3CFE9FFF4CFEAFF0E0EE926030EB0
:101A7000EA22EF0403E1010EDFCFDBFFFB0EDBCF39
:101A8000E9FFFC0EDBCFEAFF060EE926000EEA2294
:101A9000EECF14F0EECF15F0EECF16F0EFCF17F03B
:101AA000DF50270DF3CFE9FFF4CFEAFF0E0EE92652
:101AB000030EEA22EE52060EE926000EEA22EE504E
:101AC0000001141809E1EE50151806E1EE50161841
:101AD00003E1EE50171800E124E1DF50270DF3CFAA
:101AE000E9FFF4CFEAFF0E0EE926030EEA220D0EFF
:101AF000E926000EEA22EECF18F0EFCF19F0FD0E26
:101B0000DBCFE9FFFE0EDBCFEAFFEECF1AF0EFCF1F
:101B10001BF01A50181802E11B50191802E1DF508F
:101B200036D1DF2A65D7010EDB50FE0801E12DD149
:101B3000FB0EDBCFE9FFFC0EDBCFEAFFEF50E66EDA
:101B4000010EDB50270DF3CFE9FFF4CFEAFF0E0EB5
:101B5000E926030EEA22EE52E552E750EF6EFB0E45
:101B6000DBCFE9FFFC0EDBCFEAFF010EE926000E1A
:101B7000EA22EF50E66E010EDB50270DF3CFE9FFAE
:101B8000F4CFEAFF0E0EE926030EEA22EE52010E12
:101B9000E926000EEA22E552E750EF6EFB0EDBCF9E
:101BA000E9FFFC0EDBCFEAFF020EE926000EEA2277
:101BB000EF50E66E010EDB50270DF3CFE9FFF4CFB7
:101BC000EAFF0E0EE926030EEA22EE52020EE92685
:101BD000000EEA22E552E750EF6EFB0EDBCFE9FF85
:101BE000FC0EDBCFEAFF030EE926000EEA22EF50DF
:101BF000E66E010EDB50270DF3CFE9FFF4CFEAFFCD
:101C00000E0EE926030EEA22EE52030EE926000E1E
:101C1000EA22E552E750EF6EFB0EDBCFE9FFFC0E48
:101C2000DBCFEAFF040EE926000EEA22EF50E66E53
:101C3000010EDB50270DF3CFE9FFF4CFEAFF0E0EC4
:101C4000E926030EEA22EE52040EE926000EEA22ED
:101C5000E552E750EF6EFB0EDBCFE9FFFC0EDBCF6A
:101C6000EAFF050EE926000EEA22EF50E66E010EAD
:101C7000DB50270DF3CFE9FFF4CFEAFF0E0EE92684
:101C8000030EEA22EE52050EE926000EEA22E55284
:101C9000E750EF6EFB0EDBCFE9FFFC0EDBCFEAFF78
:101CA000060EE926000EEA22EECF14F0EECF15F074
:101CB000EECF16F0EFCF17F0010EDB50270DF3CF6C
:101CC000E9FFF4CFEAFF0E0EE926030EEA22EE52F8
:101CD000060EE926000EEA2214C0EEFF15C0EEFF44
:101CE00016C0EEFF17C0EEFFFD0EDBCFE9FFFE0EC4
:101CF000DBCFEAFFEECF14F0EFCF15F0010EDB5093
:101D0000270DF3CFE9FFF4CFEAFF0E0EE926030E0D
:101D1000EA220D0EE926000EEA2214C0EEFF15C0DD
:101D2000EDFF010EDB50270DF3CFE9FFF4CFEAFF03
:101D30000E0EE926030EEA221B0EE926000EEA2209
:101D4000EE6AED6A010EDB50270DF3CFE9FFF4CF09
:101D5000EAFF0E0EE926030EEA22260EE926000E01
:101D6000EA22EF80010EDB50270DF3CFE9FFF4CF1D
:101D7000EAFF0E0EE926030EEA22260EE926000EE1
:101D8000EA22EF98010EDB5002D0FE0E00D0146E56
:101D9000020EE15C02E2E16AE552E16E1450E552A6
:101DA000E7CFD9FF1200D9CFE6FFE1CFD9FFE65246
:101DB000DF6A040EDF5C01E3AFD0DF50270DF3CF05
:101DC000E9FFF4CFEAFF0E0EE926030EEA22EF50F8
:101DD00001E0A0D0DF50270DF3CFE9FFF4CFEAFFF9
:101DE0000E0EE926030EEA22010EEF6EDF50270DDC
:101DF000F3CFE9FFF4CFEAFF0E0EE926030EEA2245
:101E00000B0EE926000EEA22FD0EDBCFEEFFFE0EE2
:101E1000DBCFEDFFDF50270DF3CFE9FFF4CFEAFF73
:101E20000E0EE926030EEA220D0EE926000EEA2226
:101E3000EE6AED6ADF50270DF3CFE9FFF4CFEAFF3A
:101E40000E0EE926030EEA22EE52060EE926000ED9
:101E5000EA22EE6AEE6AEE6AEE6ADF50270DF3CFF1
:101E6000E9FFF4CFEAFF0E0EE926030EEA221B0E6D
:101E7000E926000EEA22EE6AED6ADF50270DF3CF65
:101E8000E9FFF4CFEAFF0E0EE926030EEA22260E42
:101E9000E926000EEA22EF90DF50270DF3CFE9FF8D
:101EA000F4CFEAFF0E0EE926030EEA22260EE926FB
:101EB000000EEA22EF92DF50270DF3CFE9FFF4CFB7
:101EC000EAFF0E0EE926030EEA22260EE926000E90
:101ED000EA22EF96DF50270DF3CFE9FFF4CFEAFFB8
:101EE0000E0EE926030EEA22260EE926000EEA224D
:101EF000EF8ADF50270DF3CFE9FFF4CFEAFF0E0E94
:101F0000E926030EEA22260EE926000EEA22EF98C1
:101F1000DF5004D0DF2A4DD7FE0E00D0E552E55247
:101F2000E7CFD9FF1200D9CFE6FFE1CFD9FF030EEB
:101F3000E126DF6A040EDF5C14E2DF50270DF3CFE9
:101F4000E9FFF4CFEAFF0E0EE926030EEA22EF5076
:101F500001E107D0030EDF5C02E1FE0E83D2DF2A2F
:101F6000E9D7DF50270DF3CFE9FFF4CFEAFF0E0EDC
:101F7000E926030EEA221B0EE926000EEA22EE6A8B
:101F8000ED6ADF50270DF3CFE9FFF4CFEAFF0E0E25
:101F9000E926030EEA22260EE926000EEA22EF9039
:101FA000DF50270DF3CFE9FFF4CFEAFF0E0EE9264D
:101FB000030EEA22260EE926000EEA22EF92DF50F7
:101FC000270DF3CFE9FFF4CFEAFF0E0EE926030E4B
:101FD000EA22260EE926000EEA22EF96DF50270DB0
:101FE000F3CFE9FFF4CFEAFF0E0EE926030EEA2253
:101FF000260EE926000EEA22EF9ADF50270DF3CFD6
:10200000E9FFF4CFEAFF0E0EE926030EEA22260EC0
:10201000E926000EEA22EF98010EF36E020EF3CFCE
:10202000DBFF020EDB5076E0030100C314F001C3B6
:1020300015F0002B000E0123DF50270DF3CFE9FF31
:10204000F4CFEAFF0E0EE926030EEA220B0EE92674
:10205000000EEA2214C0EEFF15C0EDFF880ED880F6
:102060000055130E015503E2006B040E016F020EC2
:10207000DB6A010EDB6A040EF36E010EDBCFF4FFA8
:10208000F350F45C46E2DF50F36E010EDB50F35C7C
:102090003DE0010EDB50270DF3CFE9FFF4CFEAFF5F
:1020A0000E0EE926030EEA22EF5030E0010EDB505F
:1020B000270DF3CFE9FFF4CFEAFF0E0EE926030E5A
:1020C000EA220B0EE926000EEA22EECF14F0EFCF43
:1020D00015F0DF50270DF3CFE9FFF4CFEAFF0E0E26
:1020E000E926030EEA220B0EE926000EEA22EECFC5
:1020F00016F0EFCF17F01650141802E1175015180C
:1021000005E1010EF36E020EF3CFDBFF010EDB2AB9
:10211000B2D787D70301022B000E03230423052324
:10212000DF50270DF3CFE9FFF4CFEAFF0E0EE926CB
:10213000030EEA22100EE926000EEA2202C3EEFF89
:1021400003C3EEFF04C3EEFF05C3EEFFDF50270D10
:10215000F3CFE9FFF4CFEAFF0E0EE926030EEA22E1
:10216000140EE926000EEA22EE6AEE6AEE6AEE6AC4
:10217000DF50270DF3CFE9FFF4CFEAFF0E0EE9267B
:10218000030EEA22180EE926000EEA22EE6AED6A34
:10219000FD0EDBCFE9FFFE0EDBCFEAFF060EE926E0
:1021A000000EEA22EECF14F0EECF15F0EECF16F0CF
:1021B000EFCF17F0DF50270DF3CFE9FFF4CFEAFFA1
:1021C0000E0EE926030EEA22EE52060EE926000E56
:1021D000EA2214C0EEFF15C0EEFF16C0EEFF17C0D6
:1021E000EEFFFD0EDBCFE9FFFE0EDBCFEAFFEF5087
:1021F000E66EDF50270DF3CFE9FFF4CFEAFF0E0EB6
:10220000E926030EEA22EE52E552E750EF6EFD0E8C
:10221000DBCFE9FFFE0EDBCFEAFF010EE926000E61
:10222000EA22EF50E66EDF50270DF3CFE9FFF4CF3F
:10223000EAFF0E0EE926030EEA22EE52010EE9260F
:10224000000EEA22E552E750EF6EFD0EDBCFE9FF0C
:10225000FE0EDBCFEAFF020EE926000EEA22EF5067
:10226000E66EDF50270DF3CFE9FFF4CFEAFF0E0E45
:10227000E926030EEA22EE52020EE926000EEA22B9
:10228000E552E750EF6EFD0EDBCFE9FFFE0EDBCF30
:10229000EAFF030EE926000EEA22EF50E66EDF5059
:1022A000270DF3CFE9FFF4CFEAFF0E0EE926030E68
:1022B000EA22EE52030EE926000EEA22E552E7502A
:1022C000EF6EFD0EDBCFE9FFFE0EDBCFEAFF040E63
:1022D000E926000EEA22EF50E66EDF50270DF3CF1D
:1022E000E9FFF4CFEAFF0E0EE926030EEA22EE52D2
:1022F000040EE926000EEA22E552E750EF6EFD0ECD
:10230000DBCFE9FFFE0EDBCFEAFF050EE926000E6C
:10231000EA22EF50E66EDF50270DF3CFE9FFF4CF4E
:10232000EAFF0E0EE926030EEA22EE52050EE9261A
:10233000000EEA22E552E750EF6EDF50270DF3CF93
:10234000E9FFF4CFEAFF0E0EE926030EEA220D0E96
:10235000E926000EEA22FB0EDBCFEEFFFC0EDBCF00
:10236000EDFFFD0EDBCFE9FFFE0EDBCFEAFFEF5006
:102370003CE1FD0EDBCFE9FFFE0EDBCFEAFF010EF5
:10238000E926000EEA22EF5030E1FD0EDBCFE9FF37
:10239000FE0EDBCFEAFF020EE926000EEA22EF5026
:1023A00024E1FD0EDBCFE9FFFE0EDBCFEAFF030EDB
:1023B000E926000EEA22EF5018E1FD0EDBCFE9FF1F
:1023C000FE0EDBCFEAFF040EE926000EEA22EF50F4
:1023D0000CE1FD0EDBCFE9FFFE0EDBCFEAFF050EC1
:1023E000E926000EEA22EF5005E0DFCFE6FF46D8EF
:1023F000E55236D0DF50270DF3CFE9FFF4CFEAFFE7
:102400000E0EE926030EEA221E0EE926000EEA222F
:1024100013CFEEFF14CFEEFF15CFEEFF16CFEEFF7A
:10242000DF50270DF3CFE9FFF4CFEAFF0E0EE926C8
:10243000030EEA22220EE926000EEA222C0EEE6E90
:10244000010EEE6EEE6AEE6ADF50270DF3CFE9FF64
:10245000F4CFEAFF0E0EE926030EEA22030EEF6E1A
:10246000DF5000D0146E030EE15C02E2E16AE55237
:10247000E16E1450E552E7CFD9FF1200D9CFE6FF45
:10248000E1CFD9FF020EE66EFE0EDBCFE6FF76DA75
:10249000E552E552FE0EDB50270DF3CFE9FFF4CFF6
:1024A000EAFF0E0EE926030EEA22050EEF6EFE0E7F
:1024B000DB50270DF3CFE9FFF4CFEAFF0E0EE9263C
:1024C000030EEA22180EE926000EEA22010EEE6E35
:1024D000ED6AFE0EDB50270DF3CFE9FFF4CFEAFFE4
:1024E0000E0EE926030EEA221E0EE926000EEA224F
:1024F00013CFEEFF14CFEEFF15CFEEFF16CFEEFF9A
:10250000FE0EDB50270DF3CFE9FFF4CFEAFF0E0EEE
:10251000E926030EEA22220EE926000EEA222C0EFC
:10252000EE6E010EEE6EEE6AEE6A00D0E552E7CF77
:10253000D9FF1200D9CFE6FFE1CFD9FFFE0EDB5065
:10254000270DF3CFE9FFF4CFEAFF0E0EE926030EC5
:10255000EA22EF50060803E1010E03D002D0000E7C
:1025600000D0E552E7CFD9FF1200D9CFE6FFE1CF87
:10257000D9FFE652FE0EDB50270DF3CFE9FFF4CF73
:10258000EAFF0E0EE926030EEA22EF50060806E0E7
:10259000FE0EDBCFE6FF5ED8E55257D0FE0EDB50D5
:1025A000270DF3CFE9FFF4CFEAFF0E0EE926030E65
:1025B000EA221B0EE926000EEA22EE50ED1013E08F
:1025C0007FEC79F0FE0EDB50270DF3CFE9FFF4CF5F
:1025D000EAFF0E0EE926030EEA221B0EE926000E84
:1025E000EA22EE6AED6A110EDF6E03010D5105E07D
:1025F0000C5103E00C51DF120C6BDFCFE6FFFE0E37
:10260000DBCFE6FFBBD9E552E552FE0EDB50270DCE
:10261000F3CFE9FFF4CFEAFF0E0EE926030EEA221C
:10262000070EEF6EFE0EDB50270DF3CFE9FFF4CF60
:10263000EAFF0E0EE926030EEA22180EE926000E26
:10264000EA22010EEE6EED6A00D0E552E552E7CFC8
:10265000D9FF1200D9CFE6FFE1CFD9FFFE0EDB5044
:10266000FE0808E0040EF36EFE0EDBCFF4FFF3501D
:10267000F45C01E3A9D0FE0EDB50270DF3CFE9FF98
:10268000F4CFEAFF0E0EE926030EEA22260EE92613
:10269000000EEA22EF50020B30E0FE0EDB50270D59
:1026A000F3CFE9FFF4CFEAFF0E0EE926030EEA228C
:1026B000260EE926000EEA22EF80FE0EDB50270DE3
:1026C000F3CFE9FFF4CFEAFF0E0EE926030EEA226C
:1026D000260EE926000EEA22EF92FE0EDB50270DB1
:1026E000F3CFE9FFF4CFEAFF0E0EE926030EEA224C
:1026F000260EE926000EEA22EF96FE0EDB50270D8D
:10270000F3CFE9FFF4CFEAFF0E0EE926030EEA222B
:102710001B0EE926000EEA22EE50ED1013E07FECCE
:1027200079F0FE0EDB50270DF3CFE9FFF4CFEAFF7F
:102730000E0EE926030EEA221B0EE926000EEA22FF
:10274000EE6AED6AFE0EDB50270DF3CFE9FFF4CF02
:10275000EAFF0E0EE926030EEA22220EE926000EFB
:10276000EA222C0EEE6E010EEE6EEE6AEE6AFE0EA0
:10277000DB50270DF3CFE9FFF4CFEAFF0E0EE92679
:10278000030EEA22260EE926000EEA22EF50200B65
:102790000DE1FE0EDB50270DF3CFE9FFF4CFEAFF8A
:1027A0000E0EE926030EEA22EF6A0DD0FE0EDB5074
:1027B000270DF3CFE9FFF4CFEAFF0E0EE926030E53
:1027C000EA22010EEF6E00D0E552E7CFD9FF1200EA
:1027D000D9CFE6FFE1CFD9FFFE0EDB50FE0808E0BF
:1027E000040EF36EFE0EDBCFF4FFF350F45C01E356
:1027F00016D0FE0EDB50270DF3CFE9FFF4CFEAFF32
:102800000E0EE926030EEA22260EE926000EEA2223
:10281000EF9AFE0EDBCFE6FF1DDFE55200D0E5525A
:10282000E7CFD9FF1200D9CFE6FFE1CFD9FFFE0EE7
:10283000DB50270DF3CFE9FFF4CFEAFF0E0EE926B8
:10284000030EEA22EF5003E1010E03D002D0000E86
:1028500000D0E552E7CFD9FF1200D9CFE6FFE1CF94
:10286000D9FF9BEC78F0000902E1000E3BD0030198
:102870000C51000802E3000E01D0010E146E0D5140
:10288000000802E3000E01D0010E141402E0000E55
:1028900029D0FE0EDB50270DF3CFE9FFF4CFEAFF7E
:1028A0000E0EE926030EEA22260EE926000EEA2283
:1028B000EF50020B12E1FE0EDB50270DF3CFE9FFC4
:1028C000F4CFEAFF0E0EE926030EEA22260EE926D1
:1028D000000EEA22EF50010B03E1000E03D002D0FC
:1028E000010E00D0E552E7CFD9FF1200D9CFE6FFA5
:1028F000E1CFD9FF9BEC78F0000901E13BD0F00E6D
:10290000DBCFE6FFD950F10FE96EFF0EDA20EA6E59
:10291000EECFE6FFEECFE6FFEECFE6FFEFCFE6FF2E
:10292000D950F50FE96EFF0EDA20EA6EEECFE6FF22
:10293000EECFE6FFEECFE6FFEFCFE6FFF90EDBCFFF
:10294000E6FFFA0EDBCFE6FFFB0EDBCFE6FFFC0E69
:10295000DBCFE6FFFD0EDBCFE6FFFE0EDBCFE6FFB3
:102960001BDA146E0F0EE15E1450000901E102D073
:102970003FEC19F0E552E7CFD9FF1200D9CFE6FFBF
:10298000E1CFD9FF9BEC78F0000923E1FE0EDB508C
:10299000270DF3CFE9FFF4CFEAFF0E0EE926030E71
:1029A000EA22260EE926000EEA22EF88FE0EDB5010
:1029B000270DF3CFE9FFF4CFEAFF0E0EE926030E51
:1029C000EA221D0EE926000EEA22FD0EDBCFEFFF04
:1029D000D8D0FD0EDBCFE6FFFE0EDB50270DF3CF88
:1029E000E9FFF4CFEAFF0E0EE926030EEA22140EE9
:1029F000E926000EEA22EECFE6FFEECFE6FFEECFAD
:102A0000E6FFEFCFE6FFFE0EDB50270DF3CFE9FF29
:102A1000F4CFEAFF0E0EE926030EEA22100EE92695
:102A2000000EEA22EECFE6FFEECFE6FFEECFE6FFA6
:102A3000EFCFE6FFFE0EDB50270DF3CFE9FFF4CF1B
:102A4000EAFF0E0EE926030EEA220D0EE926000E1D
:102A5000EA22EECFE6FFEFCFE6FFFE0EDB50270DBA
:102A6000F3CFE9FFF4CFEAFF0E0EE926030EEA22C8
:102A70000B0EE926000EEA22EECFE6FFEFCFE6FFCF
:102A8000FE0EDB50270DF3CFE9FFF4CFEAFF0E0E69
:102A9000E926030EEA22EE52E9CF14F0EACF15F050
:102AA00014C0E6FF15C0E6FF77D9166E0F0EE15E83
:102AB0001650000923E1FE0EDB50270DF3CFE9FF8E
:102AC000F4CFEAFF0E0EE926030EEA22260EE926CF
:102AD000000EEA22EF88FE0EDB50270DF3CFE9FF50
:102AE000F4CFEAFF0E0EE926030EEA221D0EE926B8
:102AF000000EEA22FD0EDBCFEFFF43D0FE0EDB50CF
:102B0000270DF3CFE9FFF4CFEAFF0E0EE926030EFF
:102B1000EA22260EE926000EEA22EF94FE0EDB5092
:102B2000270DF3CFE9FFF4CFEAFF0E0EE926030EDF
:102B3000EA22260EE926000EEA22EF96FE0EDB5070
:102B4000270DF3CFE9FFF4CFEAFF0E0EE926030EBF
:102B5000EA22260EE926000EEA22EF98FE0EDB504E
:102B6000270DF3CFE9FFF4CFEAFF0E0EE926030E9F
:102B7000EA220F0EE926000EEA22FD0EDBCFEFFF60
:102B80007EDBE552E7CFD9FF1200D9CFE6FFE1CFD8
:102B9000D9FFE652FE0EDBCFE6FF5FDEE55200090D
:102BA00002E1000EF4D0FE0EDB50270DF3CFE9FF5B
:102BB000F4CFEAFF0E0EE926030EEA22260EE926DE
:102BC000000EEA22EF50080B4FE1FE0EDB50270DFE
:102BD000F3CFE9FFF4CFEAFF0E0EE926030EEA2257
:102BE000180EE926000EEA22EE50ED103DE0FE0E32
:102BF000DB50270DF3CFE9FFF4CFEAFF0E0EE926F5
:102C0000030EEA22180EE926000EEA22EECF14F097
:102C1000EFCF15F0166A176AFE0EDB50270DF3CFC3
:102C2000E9FFF4CFEAFF0E0EE926030EEA22100EAA
:102C3000E926000EEA221450EE261550EE22165018
:102C4000EE221750EE22FE0EDB50270DF3CFE9FFE8
:102C5000F4CFEAFF0E0EE926030EEA22180EE9264B
:102C6000000EEA22EE6AED6A100EE66EFE0EDB50F2
:102C7000270DF3CFE9FFF4CFEAFF0E0EE926030E8E
:102C8000EA22140EE926000EEA22EECFE6FFEECF8E
:102C9000E6FFEECFE6FFEFCFE6FFFE0EDB50270D9F
:102CA000F3CFE9FFF4CFEAFF0E0EE926030EEA2286
:102CB000100EE926000EEA22EECFE6FFEECFE6FF89
:102CC000EECFE6FFEFCFE6FFFE0EDB50270DF3CF92
:102CD000E9FFF4CFEAFF0E0EE926030EEA220D0EFD
:102CE000E926000EEA22EECFE6FFEFCFE6FFFE0E6A
:102CF000DB50270DF3CFE9FFF4CFEAFF0E0EE926F4
:102D0000030EEA220B0EE926000EEA22EECFE6FFC2
:102D1000EFCFE6FFFE0EDB50270DF3CFE9FFF4CF38
:102D2000EAFF0E0EE926030EEA22EE52E9CF14F076
:102D3000EACF15F014C0E6FF15C0E6FF2DD8166ED9
:102D40000F0EE15E1650DF6EFE0EDB50270DF3CF47
:102D5000E9FFF4CFEAFF0E0EE926030EEA22260E63
:102D6000E926000EEA22EF94FE0EDB50270DF3CF8A
:102D7000E9FFF4CFEAFF0E0EE926030EEA220F0E5A
:102D8000E926000EEA22100EEF6EDF5000D0E55269
:102D9000E552E7CFD9FF1200D9CFE6FFE1CFD9FF47
:102DA000240EE1269BEC78F0000902E1000E29D107
:102DB00094EC79F0000902E1000E23D1FB0EDBCF89
:102DC000DEFFDBCFDDFFF90EDBCF08F0FA0EDBCF45
:102DD00009F0020E08C0DBFF030E09C0DBFFD9506B
:102DE000F50FE96EFF0EDA20EA6E040EEECFDBFF80
:102DF000050EEECFDBFF060EEECFDBFF070EEECFAC
:102E0000DBFFD950F10FE96EFF0EDA20EA6E080EF3
:102E1000EECFDBFF090EEECFDBFF0A0EEECFDBFFBE
:102E20000B0EEECFDBFF0D0EDB9CDB9E0C0EDB9062
:102E3000DB92DB94DB96F00EDB50E76E0D0EE7CFF6
:102E4000DBFFB40EF36E0E0EF3CFDBFF050EF36E59
:102E50000F0EF3CFDBFF100EDB6A110EDB6A120ED2
:102E6000DB6A130EDB6AD9CFE6FFDACFE6FF51DB70
:102E7000E552E552F00EDBA21AD0020EF36E140EEC
:102E8000F3CFDBFF040EF36E150EF3CFDBFF050E61
:102E9000F36E160EF3CFDBFFB40EF36E170EF3CF07
:102EA000DBFF0C0EDB98DB8ADB8CDB9E05D00C0E87
:102EB000DB88DB9ADB8CDB9E180E07CFDBFF190E5D
:102EC00008CFDBFF1A0E09CFDBFF1B0E0ACFDBFF9B
:102ED000FD0EDBCFE9FFFE0EDBCFEAFF060EE92693
:102EE000000EEA221C0EEECFDBFF1D0EEECFDBFF45
:102EF0001E0EEECFDBFF1F0EEECFDBFF200EDB6AD8
:102F0000060EF36E210EF3CFDBFF220EDB6A230EDB
:102F1000DB6A0301066B076B086B0C0EE66ED9507B
:102F2000180FE66E000EDA20E66E080EE66E030E4F
:102F3000E66E060EE66E030EE66E66EC9DF0146E0F
:102F4000070EE15E1450140EE66ED9CFE6FFDACF1D
:102F5000E6FF080EE66E030EE66E060EE66E030E44
:102F6000E66E66EC9DF0146E070EE15E1450F00EF6
:102F7000DBA216D0040EE66ED950140FE66E000EDA
:102F8000DA20E66E080EE66E030EE66E060EE66EBC
:102F9000030EE66E66EC9DF0146E070EE15E1450B3
:102FA000060EE66EFD0EDBCFE6FFFE0EDBCFE6FF84
:102FB0005BEC9CF0E552E552E552140EE66EE66AD3
:102FC000D9CFE6FFDACFE6FF14EC7AF0E552E5520E
:102FD000E552E552F00EDBA20FD0040EE66EE66A73
:102FE000D950140FE66E000EDA20E66E14EC7AF07B
:102FF000E552E552E552E5520301096B0A6B010EF9
:1030000000D0146E240EE15C02E2E16AE552E16E4A
:103010001450E552E7CFD9FF1200D9CFE6FFE1CF38
:10302000D9FF0301B40ED8800955050E0A5502E2F6
:10303000000E22D0FE0EDBCFE6FFF9EC79F0E55270
:10304000010EE66ED950FE0FE66EFF0EDA20E66E38
:10305000080EE66E030EE66E060EE66E030EE66ED4
:1030600066EC9DF0146E070EE15E14500301092B0F
:10307000000E0A23010E00D0E552E7CFD9FF12005F
:10308000D9CFE6FFE1CFD9FFFB0EDB5003010925C5
:103090000001146EFC0EDB5003010A210001156EC5
:1030A000B40ED8801454050E155402E2000E36D02A
:1030B000FB0EDBCFE6FFFC0EDBCFE6FFFD0EDBCF2A
:1030C000E6FFFE0EDBCFE6FF14EC7AF0E552E552A8
:1030D000E552E552FB0EDBCFE6FFFD0EDBCFE6FF50
:1030E000FE0EDBCFE6FF080EE66E030EE66E060E62
:1030F000E66E030EE66E66EC9DF0146E070EE15E62
:103100001450FB0EDBCF08F0FC0EDBCF09F00850AB
:103110000301092709500A23010E00D0E552E7CF29
:10312000D9FF1200D9CFE6FFE1CFD9FF7CCE14F052
:103130007DCE15F00E0E145E000E155A140E145EA0
:10314000000E155A140E145E000E155A1450151068
:1031500010E0FE0EDB50270DF3CFE9FFF4CFEAFFBE
:103160000E0EE926030EEA22260EE926000EEA22BA
:10317000EF8485D8FE0EDB50270DF3CFE9FFF4CFA7
:10318000EAFF0E0EE926030EEA22180EE926000ECB
:10319000EA2209C3EEFF0AC3EDFFFE0EDB50270D46
:1031A000F3CFE9FFF4CFEAFF0E0EE926030EEA2281
:1031B000260EE926000EEA22EF50080B2CE1FE0E47
:1031C000DB50270DF3CFE9FFF4CFEAFF0E0EE9261F
:1031D000030EEA221E0EE926000EEA2213CFEEFFAE
:1031E00014CFEEFF15CFEEFF16CFEEFFFE0EDB5035
:1031F000270DF3CFE9FFF4CFEAFF0E0EE926030E09
:10320000EA22220EE926000EEA222C0EEE6E010EB4
:10321000EE6EEE6AEE6AFE0EDB50270DF3CFE9FF8D
:10322000F4CFEAFF0E0EE926030EEA22260EE92667
:10323000000EEA22EF90FE0EDB50270DF3CFE9FFE0
:10324000F4CFEAFF0E0EE926030EEA22260EE92647
:10325000000EEA22EF82FE0EDB50270DF3CFE9FFCE
:10326000F4CFEAFF0E0EE926030EEA22260EE92627
:10327000000EEA22EF96E552E7CFD9FF1200D9CF30
:10328000E6FFE1CFD9FF020EE1267CCE14F07DCE21
:1032900015F00E0E145E000E155A140E145E000E7C
:1032A000155A14C0DEFF15C0DDFFDECFE6FFDDCF0F
:1032B000E6FFE9EC86F0E552E552F3CFDEFFF4CF0E
:1032C000DDFF0301086B020EE66ED9CFE6FFDACF11
:1032D000E6FF080EE66E030EE66E060EE66E030EC1
:1032E000E66E66EC9DF0146E070EE15E145006C3A8
:1032F00014F007C315F0141E151E14C0E6FF15C008
:10330000E6FFE9EC86F0E552E552F3CF06F3F4CFA1
:1033100007F306C3E6FF07C3E6FF320EE66EE66A72
:103320003DEC7AF0E552E552E552E552FDEC9CF0B9
:10333000020EE15C02E2E16AE552E16EE552E7CF9E
:10334000D9FF1200D9CFE6FFE1CFD9FFFE0EDB5047
:10335000270DF3CFE9FFF4CFEAFF0E0EE926030EA7
:10336000EA22EF5002E1000E17D0FE0EDB50270DCF
:10337000F3CFE9FFF4CFEAFF0E0EE926030EEA22AF
:10338000260EE926000EEA22EF50080B03E0010E9C
:1033900003D002D0000E00D0E552E7CFD9FF1200D3
:1033A000D9CFE6FFE1CFD9FF03010D5106E0FE0EB4
:1033B000DB50AA5D02E1010E02D0000E00D0E55202
:1033C000E7CFD9FF1200D9CFE6FFE1CFD9FF030144
:1033D000AA51270DF3CFE9FFF4CFEAFF0E0EE9263D
:1033E000030EEA221B0EE926000EEA22EE50ED1033
:1033F00002E1000E21D0AA51270DF3CFE9FFF4CF4F
:10340000EAFF0E0EE926030EEA221B0EE926000E45
:10341000EA22EE06EF5AFD0EDBCFE6FFFE0EDBCF13
:10342000E6FFB9EC78F0E552E552000903E0010E41
:1034300003D002D0000E00D0E552E7CFD9FF120032
:10344000D9CFE6FFE1CFD9FFD950FB0FE96EFF0ED0
:10345000DA20EA6E000ED880EE54000EED543FE202
:103460000301AA51270DF3CFE9FFF4CFEAFF0E0EB7
:10347000E926030EEA221B0EE926000EEA22EE5090
:10348000ED1002E1000E2DD0AA51270DF3CFE9FF78
:10349000F4CFEAFF0E0EE926030EEA221B0EE92600
:1034A000000EEA22EE06EF5AFD0EDBCF14F0DB2A07
:1034B000FE0EDBCF15F001E3DB2A14C0E6FF15C0DA
:1034C000E6FFB9EC78F0E552E552000902E1000EA2
:1034D00008D0FB0EDB06FC0E01E2DB06B5D7010EC1
:1034E00000D0E552E7CFD9FF12007FEC79F003015D
:1034F000AA51270DF3CFE9FFF4CFEAFF0E0EE9261C
:10350000030EEA221B0EE926000EEA22EE6AED6A9D
:103510001200D9CFE6FFE1CFD9FFFD0EDBCFE9FFE7
:10352000FE0EDBCFEAFFEECFE6FFEFCFE6FFE9ECE2
:1035300086F0E552E552F3CF14F0F4CF15F0FD0E0E
:10354000DBCFE9FFFE0EDBCFEAFF14C0EEFF15C0B4
:10355000EDFFFD0EDBCFE9FFFE0EDBCFEAFF020E33
:10356000E926000EEA22EECFE6FFEFCFE6FFE9EC18
:1035700086F0E552E552F3CF14F0F4CF15F0FD0ECE
:10358000DBCFE9FFFE0EDBCFEAFF020EE926000EDD
:10359000EA2214C0EEFF15C0EDFFFD0EDBCFE9FF00
:1035A000FE0EDBCFEAFF040EE926000EEA22EECF84
:1035B000E6FFEECFE6FFEECFE6FFEFCFE6FF13EC40
:1035C00087F0E552E552E552E55206C014F007C017
:1035D00015F008C016F009C017F0FD0EDBCFE9FFAB
:1035E000FE0EDBCFEAFF040EE926000EEA2214C02D
:1035F000EEFF15C0EEFF16C0EEFF17C0EEFFFD0E8A
:10360000DBCFE9FFFE0EDBCFEAFF080EE926000E56
:10361000EA22EECFE6FFEECFE6FFEECFE6FFEFCFFA
:10362000E6FF13EC87F0E552E552E552E55206C09D
:1036300014F007C015F008C016F009C017F0FD0E11
:10364000DBCFE9FFFE0EDBCFEAFF080EE926000E16
:10365000EA2214C0EEFF15C0EEFF16C0EEFF17C041
:10366000EEFFFD0EDBCFE9FFFE0EDBCFEAFF0E0E15
:10367000E926000EEA22EECFE6FFEFCFE6FFE9EC07
:1036800086F0E552E552F3CF14F0F4CF15F0FD0EBD
:10369000DBCFE9FFFE0EDBCFEAFF0E0EE926000EC0
:1036A000EA2214C0EEFF15C0EDFFFD0EDBCFE9FFEF
:1036B000FE0EDBCFEAFF100EE926000EEA22EECF67
:1036C000E6FFEFCFE6FFE9EC86F0E552E552F3CFF7
:1036D00014F0F4CF15F0FD0EDBCFE9FFFE0EDBCFCB
:1036E000EAFF100EE926000EEA2214C0EEFF15C014
:1036F000EDFFFD0EDBCFE9FFFE0EDBCFEAFF120E82
:10370000E926000EEA22EECFE6FFEFCFE6FFE9EC76
:1037100086F0E552E552F3CF14F0F4CF15F0FD0E2C
:10372000DBCFE9FFFE0EDBCFEAFF120EE926000E2B
:10373000EA2214C0EEFF15C0EDFFE552E7CFD9FF36
:02374000120075
:0E3742007478740068746D01636769016769CB
:1037500066026A706703706E6704786D6C05637348
:10376000730677617607636F6E74656E742D6C6592
:103770006E6774683A00636F6E74656E742D747949
:1037800070653A006D756C7469706172742F666F44
:10379000726D2D6461746100636F6E74656E742D5B
:1037A000646973706F736974696F6E3A006E616DEE
:1037B000653D0066696C656E616D653D00636F6EA9
:1037C00074656E742D7472616E736665722D656EAC
:1037D000636F64696E673A0071756F7465642D700C
:1037E00072696E7461626C65006261736536340083
:1037F000746578742F706C61696E0D0A0074657859
:10380000742F68746D6C0D0A00696D6167652F67B0
:1038100069660D0A00696D6167652F6A7065670DDD
:103820000A00696D6167652F706E670D0A00746527
:1038300078742F786D6C0D0A00746578742F63733B
:10384000730D0A00617564696F2F782D7761766555
:103850000D0A006170706C69636174696F6E2F6F1F
:10386000637465742D73747265616D0D0A0048543C
:1038700054502F312E3120323030204F4B0D0A431F
:103880006F6E6E656374696F6E3A20436C6F73651B
:103890000D0A00485454502F312E3120343030203E
:1038A00042616420526571756573740D0A436F6ED1
:1038B0006E656374696F6E3A20436C6F73650D0AB1
:1038C0000D0A343030204261642052657175657391
:1038D000743A20436F756C64206E6F742070726F41
:1038E0006365737320796F75722072657175657386
:1038F000740D0A00485454502F312E312034303486
:10390000204E6F7420466F756E640D0A436F6E6EA5
:10391000656374696F6E3A20436C6F73650D0A0DB1
:103920000A343034204E6F7420466F756E643A202E
:10393000436F756C64206E6F742066696E642072CC
:1039400065717565737465642066696C650D0A0040
:10395000485454502F312E3120353031204E6F7461
:1039600020496D706C656D656E7465640D0A436FFA
:103970006E6E656374696F6E3A20436C6F73650D8C
:103980000A0D0A353031204E6F7420496D706C6518
:103990006D656E7465643A20546865207265717552
:1039A0006573746564206D6574686F642069732045
:1039B0006E6F7420737570706F727465640D0A0099
:1039C000485454502F312E312035303320536572F6
:1039D0007669636520556E617661696C61626C65BC
:1039E0000D0A436F6E6E656374696F6E3A20436CA7
:1039F0006F73650D0A0D0A35303320536572766991
:103A0000636520556E617661696C61626C653A2010
:103A10005365727665722063757272656E746C7927
:103A200020746F6F2062757379202D20706C656132
:103A300073652074727920616761696E0D0A00698F
:103A40006E6465785F68746D0000001BD23C214491
:103A50004F43545950452068746D6C205055424C6A
:103A6000494320222D2F2F5733432F2F44544420D6
:103A70005848544D4C20312E30205472616E736979
:103A800074696F6E616C2F2F454E2220226874740A
:103A9000703A2F2F7777772E77332E6F72672F54E8
:103AA000522F7868746D6C312F4454442F786874A9
:103AB0006D6C312D7472616E736974696F6E616CB7
:103AC0002E647464223E0D0A3C68746D6C20786D1F
:103AD0006C6E733D22687474703A2F2F7777772E4F
:103AE00077332E6F72672F313939392F7868746DBB
:103AF0006C223E0D0A3C686561643E0D0A3C6D65B2
:103B0000746120687474702D65717569763D224307
:103B10006F6E74656E742D547970652220636F6EBC
:103B200074656E743D22746578742F68746D6C3B97
:103B300020636861727365743D7574662D38222048
:103B40002F3E0D0A3C7469746C653E456D62656478
:103B50006465642D436F64652054657374205061FF
:103B600067653C2F7469746C653E0D0A0D0A0D0A79
:103B70003C7374796C6520747970653D2274657846
:103B8000742F637373223E0D0A3C212D2D0D0A2ED6
:103B90007374796C6532207B0D0A09666F6E742D23
:103BA00066616D696C793A20417269616C2C2048BC
:103BB000656C7665746963612C2073616E732D7317
:103BC000657269663B0D0A09666F6E742D73697ABA
:103BD000653A206D656469756D3B0D0A09636F6C0C
:103BE0006F723A20234646464646463B0D0A7D0DF7
:103BF0000A2E7374796C6533207B666F6E742D6644
:103C0000616D696C793A20417269616C2C2048655C
:103C10006C7665746963612C2073616E732D7365B6
:103C20007269663B20666F6E742D7765696768748C
:103C30003A20626F6C643B20666F6E742D73697AF4
:103C4000653A206C617267653B207D0D0A2E7374A6
:103C5000796C6535207B666F6E742D66616D696C5D
:103C6000793A20417269616C2C2048656C766574E4
:103C70006963612C2073616E732D73657269663B95
:103C800020666F6E742D73697A653A20736D616C6E
:103C90006C3B207D0D0A2D2D3E0D0A3C2F7374794F
:103CA0006C653E0D0A3C2F686561643E0D0A0D0A85
:103CB0003C626F64793E0D0A0D0A3C6469762061AE
:103CC0006C69676E3D2263656E746572223E0D0AF3
:103CD00020203C7461626C652077696474683D22C1
:103CE0003630302220626F726465723D22302220AD
:103CF00063656C6C73706163696E673D223022206E
:103D000063656C6C70616464696E673D2230223E4D
:103D10000D0A202020203C74723E0D0A2020202015
:103D200020203C74643E3C64697620616C69676E57
:103D30003D2263656E746572223E3C696D67207337
:103D400072633D22696D616765732F65635F6C6F98
:103D5000676F2E6A7067222077696474683D22322B
:103D6000303022206865696768743D223730222030
:103D70002F3E3C2F6469763E3C2F74643E0D0A2032
:103D80002020203C2F74723E0D0A202020203C74FD
:103D9000723E0D0A2020202020203C74642068659B
:103DA000696768743D223230223E3C2F74643E0DB8
:103DB0000A202020203C2F74723E0D0A2020202053
:103DC0003C74723E0D0A2020202020203C74643E6A
:103DD0003C64697620616C69676E3D2263656E7430
:103DE00065722220636C6173733D227374796C6514
:103DF00033223E456D6265646465642D436F64657E
:103E00002E636F6D205443502F49502044726976C1
:103E100065722053616D706C65205765622050613A
:103E200067653C2F6469763E3C2F74643E0D0A2022
:103E30002020203C2F74723E0D0A202020203C744C
:103E4000723E0D0A2020202020203C7464206865EA
:103E5000696768743D223230223E3C2F74643E0D07
:103E60000A202020203C2F74723E0D0A20203C2F77
:103E70007461626C653E0D0A0D0A20203C7461621B
:103E80006C652077696474683D2236303022206288
:103E90006F726465723D2232222063656C6C7061C2
:103EA0006464696E673D2232222063656C6C7370B6
:103EB0006163696E673D22302220626F72646572B1
:103EC000636F6C6F723D2223333438373433223EB4
:103ED0000D0A202020203C74723E0D0A2020202054
:103EE00020203C7464206267636F6C6F723D2223F4
:103EF000333438373433223E3C64697620616C6950
:103F0000676E3D2263656E7465722220636C617317
:103F1000733D227374796C6532223E0D0A20202095
:103F200020202020203C64697620616C69676E3D0A
:103F3000226C656674223E3C7374726F6E673E53EA
:103F40006574757020504F503320456D61696C2049
:103F5000526563656976653C2F7374726F6E673E58
:103F60003C2F6469763E0D0A2020202020203C2F23
:103F70006469763E3C2F74643E0D0A202020203C6C
:103F80002F74723E0D0A202020203C74723E0D0AD0
:103F90002020202020203C746420686569676874B4
:103FA0003D223230223E0D0A2020202020200D0A02
:103FB0002020202020203C666F726D206E616D6590
:103FC0003D2273657475705F706F703322206D656C
:103FD00074686F643D226765742220616374696F41
:103FE0006E3D22696E6465782E68746D6C223E0D9C
:103FF0000A2020202020203C7461626C65207769B3
:104000006474683D22313030252220626F7264650D
:10401000723D2230222063656C6C73706163696E3F
:10402000673D2230222063656C6C70616464696E48
:10403000673D2230223E0D0A202020202020202013
:104040003C74723E0D0A20202020202020202020B9
:104050003C74642077696474683D223230302220D9
:104060006865696768743D2235223E3C2F74643E62
:104070000D0A202020202020202020203C746420B5
:1040800077696474683D223130223E3C2F74643E6F
:104090000D0A202020202020202020203C74643E77
:1040A0003C2F74643E0D0A20202020202020203C3C
:1040B0002F74723E0D0A20202020202020203C74E6
:1040C000723E0D0A202020202020202020203C7439
:1040D000643E3C64697620616C69676E3D2272695A
:1040E0006768742220636C6173733D227374796C0A
:1040F0006535223E504F5033205365727665723AD3
:104100003C2F6469763E3C2F74643E0D0A202020CB
:10411000202020202020203C74643E3C2F74643EEC
:104120000D0A202020202020202020203C74642004
:10413000616C69676E3D226C656674223E3C696EF7
:10414000707574206E616D653D22706F70335F73A2
:1041500065727665722220747970653D2274657887
:1041600074222076616C75653D227E706F70335FBE
:104170007365727665722D222073697A653D2234EB
:104180003022206D61786C656E6774683D22333033
:1041900022202F3E3C2F74643E0D0A202020202038
:1041A0002020203C2F74723E0D0A20202020202049
:1041B00020203C74723E0D0A202020202020202048
:1041C00020203C74643E3C64697620616C69676EB3
:1041D0003D2272696768742220636C6173733D22AB
:1041E0007374796C6535223E557365726E616D65C9
:1041F0003A3C2F6469763E3C2F74643E0D0A2020C1
:1042000020202020202020203C74643E3C2F746419
:104210003E0D0A202020202020202020203C7464F5
:1042200020616C69676E3D226C656674223E3C6954
:104230006E707574206E616D653D22706F70335FB6
:10424000757365726E616D652220747970653D22AB
:1042500074657874222076616C75653D227E706F7E
:1042600070335F757365726E616D652D22207369A1
:104270007A653D22343022206D61786C656E6774FA
:10428000683D22333022202F3E3C2F74643E0D0ABD
:1042900020202020202020203C2F74723E0D0A2058
:1042A000202020202020203C74723E0D0A20202057
:1042B000202020202020203C74643E3C646976202D
:1042C000616C69676E3D2272696768742220636C55
:1042D0006173733D227374796C6535223E5061734E
:1042E00073776F72643A3C2F6469763E3C2F746436
:1042F0003E0D0A202020202020202020203C746415
:104300003E3C2F74643E0D0A2020202020202020D7
:1043100020203C746420616C69676E3D226C656688
:1043200074223E3C696E707574206E616D653D222D
:10433000706F70335F70617373776F726422207473
:104340007970653D2270617373776F726422207695
:10435000616C75653D227E706F70335F7061737341
:10436000776F72642D222073697A653D2234302282
:10437000206D61786C656E6774683D223330222051
:104380002F3E3C2F74643E0D0A2020202020202048
:10439000203C2F74723E0D0A202020202020202057
:1043A0003C74723E0D0A2020202020202020202056
:1043B0003C74643E3C64697620616C69676E3D22A2
:1043C00072696768742220636C6173733D22737431
:1043D000796C6535223E436865636B20666F722099
:1043E0006D61696C206E6F773A3C2F6469763E3C54
:1043F0002F74643E0D0A2020202020202020202021
:104400003C74643E3C2F74643E0D0A202020202022
:1044100020202020203C746420616C69676E3D225E
:104420006C656674223E3C696E707574206E616DB9
:10443000653D22706F70335F636865636B5F6D61AC
:10444000696C2220747970653D22636865636B62D4
:104450006F78222076616C75653D2231222F3E3CBB
:104460002F74643E0D0A20202020202020203C2F85
:1044700074723E0D0A20202020202020200D0A20CA
:10448000202020202020203C74723E0D0A20202075
:10449000202020202020203C74643E3C2F74643E69
:1044A0000D0A202020202020202020203C74643E63
:1044B0003C2F74643E0D0A20202020202020202044
:1044C000203C746420616C69676E3D226C65667483
:1044D000223E3C6C6162656C3E0D0A20202020204B
:1044E000202020202020203C696E70757420747973
:1044F00070653D227375626D697422206E616D6511
:104500003D22706F70335F7375626D69742220761F
:10451000616C75653D225375626D697422202F3E72
:104520000D0A202020202020202020203C2F6C61FC
:1045300062656C3E3C2F74643E0D0A2020202020D2
:104540002020203C2F74723E0D0A202020202020A5
:104550003C2F7461626C653E0D0A202020202020D3
:104560003C2F666F726D3E0D0A2020202020203CDB
:104570002F74643E0D0A202020203C2F74723E0DC3
:104580000A20203C2F7461626C653E0D0A20200DCC
:104590000A20203C7461626C652077696474683D10
:1045A000223630302220626F726465723D223022E2
:1045B0002063656C6C73706163696E673D223022A5
:1045C0002063656C6C70616464696E673D223022A3
:1045D0003E0D0A202020203C74723E0D0A2020202F
:1045E0002020203C7464206865696768743D22322D
:1045F00030223E3C2F74643E0D0A202020203C2FA8
:1046000074723E0D0A20203C2F7461626C653E0D71
:104610000A20200D0A20203C7461626C65207769B5
:104620006474683D223630302220626F7264657295
:104630003D2232222063656C6C70616464696E6730
:104640003D2232222063656C6C73706163696E6712
:104650003D22302220626F72646572636F6C6F72EC
:104660003D2223333438373433223E0D0A202020B4
:10467000203C74723E0D0A2020202020203C7464CF
:10468000206267636F6C6F723D2223333438373496
:1046900033223E3C64697620616C69676E3D22631B
:1046A000656E7465722220636C6173733D2273744E
:1046B000796C6532223E0D0A202020202020202007
:1046C00020203C64697620616C69676E3D226C65D0
:1046D0006674223E3C7374726F6E673E53657475E8
:1046E0007020534D545020456D61696C2053656EA8
:1046F000643C2F7374726F6E673E3C2F6469763E24
:104700000D0A2020202020203C2F6469763E3C2F7B
:1047100074643E0D0A202020203C2F74723E0D0A46
:10472000202020203C74723E0D0A202020202020D2
:104730003C7464206865696768743D223230223EAB
:104740003C666F726D20616374696F6E3D22696EA5
:104750006465782E68746D6C22206D6574686F6472
:104760003D22706F73742220656E63747970653DAD
:10477000226170706C69636174696F6E2F782D7738
:1047800077772D666F726D2D75726C656E636F64D1
:10479000656422206E616D653D2273657475705F7E
:1047A000736D7470223E0D0A2020202020202020CE
:1047B00020203C7461626C652077696474683D22D6
:1047C000313030252220626F726465723D223022C2
:1047D0002063656C6C73706163696E673D22302283
:1047E0002063656C6C70616464696E673D22302281
:1047F0003E0D0A2020202020202020202020203CA8
:1048000074723E0D0A20202020202020202020200D
:104810002020203C74642077696474683D22323023
:104820003022206865696768743D2235223E3C2F3E
:1048300074643E0D0A2020202020202020202020EB
:104840002020203C74642077696474683D223130F4
:10485000223E3C2F74643E0D0A2020202020202080
:10486000202020202020203C74643E3C2F74643E95
:104870000D0A2020202020202020202020203C2F36
:1048800074723E0D0A20202020202020202020208D
:10489000203C74723E0D0A20202020202020202061
:1048A00020202020203C74643E3C64697620616CAA
:1048B00069676E3D2272696768742220636C617358
:1048C000733D227374796C6535223E534D545020EC
:1048D0005365727665723A3C2F6469763E3C2F745C
:1048E000643E0D0A2020202020202020202020208F
:1048F00020203C74643E3C2F74643E0D0A2020202E
:1049000020202020202020202020203C74642061B2
:104910006C69676E3D226C656674223E3C696E7000
:104920007574206E616D653D22736D74705F736583
:10493000727665722220747970653D227465787490
:10494000222076616C75653D227E736D74705F7395
:1049500065727665722D222073697A653D22343046
:1049600022206D61786C656E6774683D2233302259
:10497000202F3E3C2F74643E0D0A20202020202052
:104980002020202020203C2F74723E0D0A20202061
:104990002020202020202020203C74723E0D0A2060
:1049A000202020202020202020202020203C746453
:1049B0003E3C64697620616C69676E3D227269676E
:1049C00068742220636C6173733D227374796C6523
:1049D00035223E557365726E616D653A3C2F646990
:1049E000763E3C2F74643E0D0A202020202020209B
:1049F000202020202020203C74643E3C2F74643E04
:104A00000D0A2020202020202020202020202020CF
:104A10003C746420616C69676E3D226C656674222B
:104A20003E3C696E707574206E616D653D22736DDC
:104A300074705F757365726E616D65222074797034
:104A4000653D2274657874222076616C75653D221F
:104A50007E736D74705F757365726E616D652D2206
:104A60002073697A653D22343022206D61786C654F
:104A70006E6774683D22333022202F3E3C2F7464D1
:104A80003E0D0A2020202020202020202020203C15
:104A90002F74723E0D0A202020202020202020206C
:104AA00020203C74723E0D0A20202020202020204F
:104AB0002020202020203C74643E3C6469762061E4
:104AC0006C69676E3D2272696768742220636C614D
:104AD00073733D227374796C6535223E5061737334
:104AE000776F72643A3C2F6469763E3C2F74643E63
:104AF0000D0A2020202020202020202020202020DF
:104B00003C74643E3C2F74643E0D0A20202020201B
:104B10002020202020202020203C746420616C690B
:104B2000676E3D226C656674223E3C696E707574DA
:104B3000206E616D653D22736D74705F706173737B
:104B4000776F72642220747970653D22706173738F
:104B5000776F7264222076616C75653D227E736D7D
:104B600074705F70617373776F72642D2220736944
:104B70007A653D22343022206D61786C656E6774F1
:104B8000683D22333022202F3E3C2F74643E0D0AB4
:104B90002020202020202020202020203C2F747244
:104BA0003E0D0A2020202020202020202020203CF4
:104BB00074723E0D0A20202020202020202020205A
:104BC0002020203C74643E3C64697620616C6967F7
:104BD0006E3D2272696768742220636C6173733D55
:104BE000227374796C6535223E546F20416464727F
:104BF0006573733A3C2F6469763E3C2F74643E0DB6
:104C00000A20202020202020202020202020203C9E
:104C100074643E3C2F74643E0D0A20202020202026
:104C200020202020202020203C746420616C6967B3
:104C30006E3D226C656674223E3C696E7075742010
:104C40006E616D653D22736D74705F746F222074A8
:104C50007970653D2274657874222076616C756583
:104C60003D227E736D74705F746F2D222073697A9C
:104C7000653D22343022206D61786C656E67746802
:104C80003D22333022202F3E3C2F74643E0D0A20FB
:104C900020202020202020202020203C2F74723E25
:104CA0000D0A2020202020202020202020203C74BD
:104CB000723E0D0A202020202020202020202020AD
:104CC00020203C74643E3C64697620616C69676EA8
:104CD0003D2272696768742220636C6173733D22A0
:104CE0007374796C6535223E46726F6D2041646441
:104CF000726573733A3C2F6469763E3C2F74643E50
:104D00000D0A2020202020202020202020202020CC
:104D10003C74643E3C2F74643E0D0A202020202009
:104D20002020202020202020203C746420616C69F9
:104D3000676E3D226C656674223E3C696E707574C8
:104D4000206E616D653D22736D74705F66726F6D6C
:104D50002220747970653D22746578742220766112
:104D60006C75653D227E736D74705F66726F6D2D1C
:104D7000222073697A653D22343022206D61786C7F
:104D8000656E6774683D22333022202F3E3C2F74BD
:104D9000643E0D0A202020202020202020202020DA
:104DA0003C2F74723E0D0A2020202020202020203D
:104DB0002020203C74723E0D0A202020202020203C
:104DC000202020202020203C74643E3C6469762012
:104DD000616C69676E3D2272696768742220636C3A
:104DE0006173733D227374796C6535223E5375622D
:104DF0006A6563743A3C2F6469763E3C2F74643E66
:104E00000D0A2020202020202020202020202020CB
:104E10003C74643E3C2F74643E0D0A202020202008
:104E20002020202020202020203C746420616C69F8
:104E3000676E3D226C656674223E3C696E707574C7
:104E4000206E616D653D22736D74705F7375626A6B
:104E50006563742220747970653D227465787422CC
:104E60002076616C75653D227E736D74705F73751D
:104E7000626A6563742D222073697A653D2234303D
:104E800022206D61786C656E6774683D2233302234
:104E9000202F3E3C2F74643E0D0A2020202020202D
:104EA0002020202020203C2F74723E0D0A2020203C
:104EB0002020202020202020203C74723E0D0A203B
:104EC000202020202020202020202020203C74642E
:104ED0003E3C64697620616C69676E3D2272696749
:104EE00068742220636C6173733D227374796C65FE
:104EF00035223E53656E64206D61696C206E6F775C
:104F00003A3C2F6469763E3C2F74643E0D0A2020A3
:104F10002020202020202020202020203C74643EBF
:104F20003C2F74643E0D0A202020202020202020C9
:104F300020202020203C746420616C69676E3D2233
:104F40006C656674223E3C696E707574206E616D8E
:104F5000653D22736D74705F73656E645F6D61692A
:104F60006C2220747970653D22636865636B626FA3
:104F700078222076616C75653D2231222F3E3C2FD0
:104F800074643E0D0A202020202020202020202094
:104F9000203C2F74723E0D0A20202020202020204B
:104FA000202020203C74723E0D0A2020202020204A
:104FB00020202020202020203C74643E3C2F74645C
:104FC0003E0D0A20202020202020202020202020EC
:104FD000203C74643E3C2F74643E0D0A2020202047
:104FE000202020202020202020203C746420616C80
:104FF00069676E3D226C656674223E3C6C61626539
:105000006C3E0D0A2020202020202020202020205F
:10501000202020203C696E70757420747970653D85
:10502000227375626D697422206E616D653D227315
:105030006D74705F7375626D6974222076616C7532
:10504000653D225375626D697422202F3E0D0A2042
:10505000202020202020202020202020203C2F6CD9
:105060006162656C3E3C2F74643E0D0A2020202056
:1050700020202020202020203C2F74723E0D0A206A
:105080002020202020202020203C2F7461626C658D
:105090003E0D0A2020202020203C2F666F726D3E9E
:1050A0003C2F74643E0D0A202020203C2F74723E59
:1050B0000D0A20203C2F7461626C653E0D0A202091
:1050C0000D0A20203C7461626C6520776964746805
:1050D0003D223630302220626F726465723D22308C
:1050E000222063656C6C73706163696E673D22306A
:1050F000222063656C6C70616464696E673D223068
:10510000223E0D0A202020203C74723E0D0A2020F1
:10511000202020203C7464206865696768743D2203
:105120003230223E3C2F74643E0D0A202020203C69
:105130002F74723E0D0A20203C2F7461626C653E14
:105140000D0A20200D0A20203C7461626C652077D6
:10515000696474683D223630302220626F72646563
:10516000723D2232222063656C6C70616464696EEA
:10517000673D2232222063656C6C73706163696ED7
:10518000673D22302220626F72646572636F6C6FBC
:10519000723D2223333438373433223E0D0A202027
:1051A00020203C74723E0D0A2020202020203C74D8
:1051B00064206267636F6C6F723D2223333438372B
:1051C0003433223E3C64697620616C69676E3D220F
:1051D00063656E7465722220636C6173733D227324
:1051E00074796C6532223E0D0A2020202020202078
:1051F0002020203C64697620616C69676E3D226CDA
:10520000656674223E3C7374726F6E673E55706CB7
:105210006F61642046696C653C2F7374726F6E67B2
:105220003E3C2F6469763E0D0A2020202020203C41
:105230002F6469763E3C2F74643E0D0A20202020A6
:105240003C2F74723E0D0A202020203C74723E0DCB
:105250000A2020202020203C74642068656967684B
:10526000743D223230223E3C666F726D2061637461
:10527000696F6E3D22696E6465782E68746D6C226C
:10528000206D6574686F643D22706F7374222065B1
:105290006E63747970653D226D756C7469706172AE
:1052A000742F666F726D2D6461746122206E616D62
:1052B000653D2275706C6F6164223E0D0A202020CE
:1052C000202020202020203C7461626C65207769BA
:1052D0006474683D22313030252220626F7264652B
:1052E000723D2230222063656C6C73706163696E5D
:1052F000673D2230222063656C6C70616464696E66
:10530000673D2230223E0D0A202020202020202030
:10531000202020203C74723E0D0A202020202020D6
:1053200020202020202020203C7464207769647491
:10533000683D2232303022206865696768743D22FA
:1053400035223E3C2F74643E0D0A20202020202070
:1053500020202020202020203C7464207769647461
:10536000683D223130223E3C2F74643E0D0A2020DD
:105370002020202020202020202020203C74643E5B
:105380003C2F74643E0D0A20202020202020202065
:105390002020203C2F74723E0D0A20202020202047
:1053A0002020202020203C74723E0D0A2020202046
:1053B000202020202020202020203C74643E3C64BB
:1053C000697620616C69676E3D2272696768742234
:1053D00020636C6173733D227374796C6535223E72
:1053E00053656C6563742046696C653A3C2F64694B
:1053F000763E3C2F74643E0D0A2020202020202081
:10540000202020202020203C74643E3C2F74643EE9
:105410000D0A2020202020202020202020202020B5
:105420003C746420616C69676E3D226C6566742211
:105430003E3C6C6162656C3E0D0A202020202020DD
:10544000202020202020202020203C696E707574B0
:10545000206E616D653D2275706C6F61645F666979
:105460006C656E616D652220747970653D22666998
:105470006C65222073697A653D22343022202F3EEC
:105480000D0A202020202020202020202020202045
:105490003C2F6C6162656C3E3C2F74643E0D0A20AB
:1054A00020202020202020202020203C2F74723E0D
:1054B0000D0A2020202020202020202020200D0A3E
:1054C0002020202020202020202020200D0A202005
:1054D000202020202020202020200D0A20202020F5
:1054E00020202020202020203C74723E0D0A202005
:1054F0002020202020202020202020203C74643EDA
:105500003C2F74643E0D0A202020202020202020E3
:1055100020202020203C74643E3C2F74643E0D0A01
:1055200020202020202020202020202020203C740B
:105530006420616C69676E3D226C656674223E3C36
:105540006C6162656C3E0D0A202020202020202006
:1055500020202020202020203C696E70757420744B
:105560007970653D227375626D697422206E616D7C
:10557000653D2275706C6F61645F7375626D6974EF
:10558000222076616C75653D2253656E6422202F62
:105590003E0D0A2020202020202020202020202016
:1055A000203C2F6C6162656C3E3C2F74643E0D0A9A
:1055B0002020202020202020202020203C2F74721A
:1055C0003E0D0A202020202020202020203C2F7467
:1055D00061626C653E0D0A2020202020203C2F6651
:1055E0006F726D3E3C2F74643E0D0A202020203CDB
:1055F0002F74723E0D0A20203C2F7461626C653E50
:105600000D0A200D0A3C2F6469763E0D0A3C2F627C
:105610006F64793E0D0A3C2F68746D6C3E0D0A690B
:105620006D616765735F65635F6C6F676F5F6A70FD
:10563000670000000F0BFFD8FFE000104A46494604
:1056400000010200006400640000FFEC00114475DA
:10565000636B7900010004000000320000FFEE00DF
:105660000E41646F62650064C000000001FFDB0052
:105670008400080606060606080606080C08070841
:105680000C0E0A08080A0E100D0D0E0D0D10110C4F
:105690000E0D0D0E0C110F12131413120F18181AF1
:1056A0001A181823222222232727272727272727CC
:1056B000272701090808090A090B09090B0E0B0D18
:1056C0000B0E110E0E0E0E11130D0D0E0D0D1318E7
:1056D000110F0F0F0F1118161714141417161A1A8A
:1056E00018181A1A212120212127272727272727A1
:1056F000272727FFC0001108004600C80301220029
:10570000021101031101FFC4009E00010003010109
:105710000101000000000000000000000506070471
:10572000030102010100030101000000000000006C
:105730000000000000010203040510000103030340
:105740000203050507030500000000010203040031
:105750001105211206311341612251813223147146
:1057600091521507A1B14262722416F017274353D4
:10577000633435110001030302030408050500002A
:1057800000000000010011022112033104415132D6
:105790007181C1136191A1D122425233F0E1729221
:1057A00083F1628273B3FFDA000C0301000211037C
:1057B00011003F00DFE94A51129513279261A3C8F7
:1057C00010CCC6952557086F77A7701A256B174A16
:1057D0002E74D6B30E55FA85CBD99AEE2D514616B6
:1057E000DD2DF31D527F121E236949F6A53EFAAC4A
:1057F000A4221CAC73EE218622537AD030F1D16BF7
:10580000390CAE3714D77B2329B8C83F0F7140132A
:10581000FD29EA7DD54CC97EA7444EE6F0F194FA05
:10582000BC1F7FD0807C903D47F6564CA92FCA758F
:105830004FC9756F3CB37538E28A944F9955CD5C6A
:10584000786BFC4D2F84679A5190A3669E78EE8DFD
:10585000E5B9200B1F355C7D95C93CF9246D811895
:10586000DF895CA3793CB2118B6307895D6DC9E563
:105870007CB5CB24B8EB371708F951D27CCE83F72F
:105880009AD0B05032B8D8C7F36C8090909D104534
:10589000C376FF00CAAF51F7D7DCCE46562F1A9910
:1058A0001878026A36FA4344042136F4AF6235525E
:1058B0007FA6B319B9DCC679E4B4FB8B74AD566E20
:1058C0002B4084DFA58213D7DF58CCC36D2BE47245
:1058D00065C8473223F9FB56A4C7117265391EE02B
:1058E000B526B92611E92623735B2E0B0049B24970
:1058F0003E0959F49FBEA56B3AC3F05992825ECA25
:10590000AFE95A363D8458BA4799E89FDB57C891AA
:1059100062E322263B3F2E3B209BAD44D87524A951
:1059200066BAB6D9371304E6C6203856BEA5BE39C6
:105930004E41E7161C3FA2E9A557D3CDB8DAA6AA77
:1059400017D60491A07D42CC93EC0E74F7F4A9E431
:105950002D0E212E36A0B4285D2A49B820F8822BBE
:1059600078CE32E9902DC8AB4651974905B92FD56D
:10597000294AB2B25294A225294A225294A2252938
:105980004A225294A225294A225294A22CFB23C7D0
:105990009AE3F8F664B31589B927E476077829689D
:1059A00025C52D4D96DB2A090AB01D6B9242512266
:1059B00023B139E3ACADA50DF1D845953585902CD3
:1059C0005AEC8B369B782AB4A71B6DD012E242C0EA
:1059D0002140285EC526E0FDA0D56325C5234ECB1A
:1059E0004BCACD48759ED214CB4145175B695052C6
:1059F0005DDBA949D3A51944A2240C6401075056C4
:105A00004D99E2D2712D0C8C2746470EB3F2E73444
:105A10003547F23E81F0287DD514DAEB49C6CEE455
:105A2000D27B7222B4C40C42137521C425A845B59B
:105A30007A55BCABD4BBFDB7A8ACB716C465DD7A4C
:105A4000470F7D26437753B8B55D0176F89710AEC2
:105A5000DA7F2FEEAE4CDB77AC7D4BCECDB230791A
:105A600061A8FA788ECE6A3F01CB32B81584C6772A
:105A7000BB16F75C476E5B3EDDBE293F6569BC73B4
:105A800090F1DCC3CB7A236DC4C9BC077DA584A586
:105A9000D55BF0AF4DE3ECAC3D5DC61C5B2F214DFB
:105AA000BAD92971B582952543A8503D2BD10F1441
